:020000021000EC
:10C000000000022075C301005DC301005FC3010091
:10C0100061C3010063C3010065C3010000000000AB
:10C0200000000000000000000000000067C30100E5
:10C0300069C30100000000006BC301006DC3010073
:10C040001DE401006FC301009DE8010075FC0100C3
:10C050006FC301006FC3010021E70100C9F20100B5
:10C060006FC301006FC301006FC301006FC3010004
:10C070006FC301006FC301006FC301006FC30100F4
:10C080006FC301008DD601006FC301006FC30100B3
:10C090006FC301006FC30100555002006FC3010060
:10C0A0006FC301006FC301004DF901005DF901008C
:10C0B00021F201006FC30100000000000000000039
:10C0C0006FC301006FC301006FC301006FC30100A4
:10C0D0006FC301006FC301006FC301006FC3010094
:10C0E0006FC301000000000000000000000000001D
:10C0F000000000006FC30100000000006FC30100DA
:10C10000000000000000000000000000000000002F
:10C11000000000000000000000000000000000001F
:10C12000000000000000000000000000000000000F
:10C1300000000000000000000000000000000000FF
:10C1400000000000000000000000000000000000EF
:10C1500000000000000000000000000000000000DF
:10C1600000000000000000000000000000000000CF
:10C1700000000000000000000000000000000000BF
:10C1800000000000000000000000000000000000AF
:10C19000000000000000000000000000000000009F
:10C1A000000000000000000000000000000000008F
:10C1B000000000000000000000000000000000007F
:10C1C000000000000000000000000000000000006F
:10C1D000000000000000000000000000000000005F
:10C1E000000000000000000000000000000000004F
:10C1F000000000000000000000000000000000003F
:10C20000354936480A1A02D0072291438D463449EF
:10C2100034480A1A06D00722914381F30988022282
:10C2200082F3148830483149314A00F044F83148EB
:10C230003149324A00F03FF831483249324A00F081
:10C240003AF832483249334A00F035F83248334937
:10C25000334A00F030F833483349344A00F02BF8C1
:10C2600033483449344A00F026F83448344900222F
:10C2700000F02CF833483449002200F027F8334806
:10C280003349091A082902DB002202604160314A61
:10C2900090471F481F49884205D00268043003B404
:10C2A000904703BCF7E700208646EC4600200021BB
:10C2B000294A9047FEE7884207D0521A05D00378F2
:10C2C00001300B700131013AF9D17047884202D038
:10C2D00002700130FAE770470000022000F80120E8
:10C2E0000000022000000220487102000826002001
:10C2F000C0350020D0C30100D0C30100B8600200E7
:10C30000487102000826002008260020D46102009F
:10C31000D4610200D4610200D4610200D461020041
:10C32000D4610200D4610200D461020048710200AD
:10C3300000810200C0350020C0350020C03500203B
:10C340007C4C00207C4C00207C4C00207C4C00204D
:10C350007C5400209DC301008D300200FEE7FEE703
:10C36000FEE7FEE7FEE7FEE7FEE7FEE7FEE7FEE7A5
:10C3700000F002B8FFF7FCBF0F484FF007018843F9
:10C3800085460E4880470E48016841F470010160FF
:10C39000BFF34F8FBFF36F8FFFF732BF09480A49D2
:10C3A0000A4A884207D0521A05D0037801300B7030
:10C3B0000131013AF9D1704700000220E9DF0100A4
:10C3C00088ED00E0D4610200082600200826002045
:10C3D0007047000007B5044B0093044A402300F067
:10C3E00032F803B05DF804FBF1C30100C135002051
:10C3F0002DE9F84388461446B2B10F4B0F4E032582
:10C40000002743F00109224608EB0701002006F04F
:10C4100057FF0744241A48B933782BB14FF47A40B8
:10C42000C847013D02D13570BDE8F8830123337060
:10C43000002CE8D1F8E700BFE0610200C035002021
:10C44000704706F06DBFF0B595B01D46164608461C
:10C450000C4601F0C9FC1A9B0D93CDE90865002537
:10C460002B46082205A920460A958DF82C500C95DC
:10C4700001F0D6FC079B0293069B03939DF81430B2
:10C480008DF8115003F00302012A1DD1BDF81420CC
:10C49000059DC3F3C203C2F383168DF81030B200BA
:10C4A00008230EA9204601F0BBFCC5F3952508AB77
:10C4B0000093324602AB0EA9284600F033FB20461B
:10C4C00001F096FC15B0F0BD022AF8D1BDF8165067
:10C4D000C3F3C203C5F389158DF810300827082D62
:10C4E0002E4628BF08263B4632460EA9204601F0BC
:10C4F00097FCAD1B08AB02AA31460EA8374400F0EA
:10C5000075FB002DEBD1DAE708B5FFF79AFF044879
:10C51000042100F071FA034B01225A7108BD00BFDB
:10C52000C461020008260020037813F0040216D02C
:10C5300003F00303012B03D0022B09D00120704725
:10C540000A6800880232C0F3831002440A60F5E7EB
:10C550000B684288023303EB92130B60EEE7104640
:10C56000704700002DE9F04FDFF81CA187B00F469F
:10C5700000230446861C0DF1070015468DF8073090
:10C5800000F016FFDAF804203A60DAF8083003F514
:10C5900080739B1A0AF21C470AF583690AF2144851
:10C5A000B3421AD30020002D69D004F00F039B0181
:10C5B00043F0050363F30F00DAF80430DAB2033214
:10C5C00033444AF822009DF80700CAF8043000F00E
:10C5D00013FF012007B0BDE8F08F0121384601F0BC
:10C5E00032F9484601F047F9404601F044F9DAF8DB
:10C5F00008000290C0B203300AEB800002A9FFF7E6
:10C6000093FF029B30BBDAB20AEB8202D16803913E
:10C610009A1C0133DBB20AEB83030292D3F80CB00D
:10C6200001F00303012B22D0022B15D08346404694
:10C6300001F024F910B1029BCAF808305946384677
:10C6400001F001F9DAF80830DAF8042003F5807314
:10C650009B1AA5E7D8B2CEE7BDF80E30C3F3891315
:10C6600003334FEA1B4B02EB93030293DFE7BDF862
:10C670000C30C3F383134FEA1B4B1344F5E7A405B7
:10C6800044F0060098E700BFD4360020064B074868
:10C6900010B500221A7001F060FB044610B904487E
:10C6A00001F008FC204610BDD436002010610200C5
:10C6B0001C62020030B50A4C71B10A4A0A49121BC9
:10C6C000D20800239A4201D1002030BD31F8235016
:10C6D000854202D00133F5E7034654F83300F4E70E
:10C6E00024610200C461020008260020094B0139C0
:10C6F00003EBC000032909D8DFE801F00A020406B1
:10C7000004207047007970474079704700207047D7
:10C71000022070472461020070470000034BD3E9F8
:10C720000130C31A58425841704700BFD436002028
:10C730002DE9F04186B0FFF7F1FF0546002840F0F3
:10C74000ED80774CC4F81804BFF34F8FA3680293B1
:10C75000DBB2033304EB830002A9FFF7E5FE029B83
:10C7600018B1D4F81824002A5AD0DAB2991C01332F
:10C7700004EB8202DBB204EB8303D268DB68049330
:10C7800002F00303022B0392029154D1BDF80E3044
:10C790006448C3F38917502F3E4628BF502606F140
:10C7A000080166F38F13C1F30901ADF80E3001F0F3
:10C7B000ECFA0546002800F09C8001F015FB0023F0
:10C7C000082203A9284601F021FB0299CB43DBB2E2
:10C7D0000133C9B20331B6EB830F4FEA830204EB96
:10C7E000810125D95FFA82F80823A6EB08062846BE
:10C7F00001F00CFBF6B208F108034B4903F0FC030F
:10C800003246284601F002FB029B033703EB9707F1
:10C810000297D4F81834002B43D1D4F8106453E0B5
:10C8200062689A4294D8A260284606B0BDE8F081BA
:10C8300008233246E5E7012B5BD1BDF80C303948BF
:10C84000C3F38311062928BF062161F3891302313E
:10C8500001F00F018900ADF80C3001F096FA0546A1
:10C86000002846D001F0C0FA0023082203A9284678
:10C8700001F0CCFA0026BDF80C20C2F38312B300FD
:10C88000964203F10803C4D202994A1CC9B203318B
:10C89000029204EB81010422284601F0B7FA013626
:10C8A000E9E7284601F0A4FAFFF738FF80F001001D
:10C8B000C5B2B9E7F3685B7923B1336829461B68D1
:10C8C00030469847F3681E68002EF3D1284601F0E1
:10C8D0008FFA0DF107008DF8076000F069FDD4F8BC
:10C8E00018340BB9029BA3609DF8070000F084FD8B
:10C8F000DAE7D4F8104454B90C4B0D480D49C01A6E
:10C90000C008000440F0020000F05EF8CCE72368A5
:10C9100020469B689847E3681C68ECE7002583E79E
:10C92000D436002010610200E036002024610200AD
:10C9300074610200046202002DE9F34704460E46CA
:10C94000924601A9012218469946FFF70BFE1C4F9B
:10C9500010B3019D4FF00008AA1CC84508EB020166
:10C9600025D11848002100F03FFF80F3100000049B
:10C9700040EA1440E4006B1C04F03804DBB2EDB272
:10C9800044F0010407EB8303033544EA881444EAC6
:10C990008624D86047F825403B781BB1FFF7C8FED6
:10C9A0000028FBD1FFF7B8FE02B0BDE8F087C9B29E
:10C9B00007EB81015AF82830CB6008F10108CCE779
:10C9C000D4360020F03A002000231A46FFF7B4BF07
:10C9D00007B50123019201AAFFF7AEFF03B05DF88E
:10C9E00004FB07B5CDE9002302236A46FFF7A4FF45
:10C9F00003B05DF804FB000030B50F4CD4F81024F0
:10CA000003460020114631B9D96808714AB9C4F803
:10CA100010340A6030BDC9680D79854206D00968B6
:10CA2000F1E7D26814680C601360F3E701300A285C
:10CA3000E8D14FF0FF30EDE7D436002038B5084B91
:10CA40000125D3F810441D7004B938BDE3685D7149
:10CA5000236820465B689847E3681C68F4E700BFDA
:10CA6000D436002030B5C38885B004460D4633B1B6
:10CA7000144A00921449154A284600F062FF217AB0
:10CA800005291DD0637A4BB1A088FFF72FFE104B0C
:10CA9000104953F82020284600F053FF227A0E4B0D
:10CAA000A08853F8222003920021FFF703FE039A87
:10CAB0000A490346284605B0BDE8304000F041BFB2
:10CAC00005B030BD486202003062020028620200F8
:10CAD000B46202004D620200D8620200506202009D
:10CAE00007B503460846197A052911D05B7A2BB1A0
:10CAF000094A0A49019000F024FF01980849019071
:10CB000000F01FFF019803B05DF804EB00F00EBFCA
:10CB1000002AF8D0F2E700BF486202004D6202002E
:10CB2000B56902002DE9F04385B01F460C9D002336
:10CB300095F80C902B7306460C46904629463846CD
:10CB4000FFF790FFB8F1060F09D8DFE808F00412EC
:10CB5000181F283340003146284600F0F2FE00221C
:10CB600029463846FFF7BCFF85F80C9005B0BDE8B4
:10CB7000F08322683146284600F0E3FEEFE7D4E96F
:10CB800000233146284600F0DCFEE8E7A368009366
:10CB90003146D4E90023284600F0D3FEDFE7E368FE
:10CBA0000193A36800933146D4E90023284600F09E
:10CBB000C8FED4E723690293E3680193A368009356
:10CBC0003146D4E90023284600F0BBFEC7E763697D
:10CBD000039323690293E3680193A36800933146AA
:10CBE000D4E90023284600F0ACFEB8E708292DE977
:10CBF000F74F80460E4617461C463CD8002593F852
:10CC00000C901D7319461046FFF72CFFDFF888A023
:10CC1000DFF888B0AE4231D918F8052059462046D1
:10CC200000F08FFE0135082DF4D11949194DDFF8B8
:10CC300070A0204600F085FE4FF0000B5E4522D923
:10CC400018F80B207E2A05D81046019208F030FE15
:10CC5000019A00B92E225146204600F072FE0BF1D7
:10CC6000010BBBF1080FE9D1012221463846FFF73D
:10CC700037FF84F80C9003B0BDE8F08F5146204692
:10CC800000F05FFECEE72946204600F05AFEE6E7B8
:10CC90006462020062620200606202005A62020084
:10CCA000666202001FB50021039001AA44F2010050
:10CCB000CDE9011100F004F805B05DF804FB0000B7
:10CCC00038B572B6FFF7BAFEFFF732FD0028FBD188
:10CCD000104B114C114D1249E41AE408240444F09D
:10CCE0000100FFF771FED5F8F030DB0700D500BE7C
:10CCF0000C4944F00200FFF767FEBFF34F8FEA686C
:10CD0000094B02F4E0621343EB60BFF34F8F00BFA7
:10CD1000FDE700BF246102007461020000ED00E045
:10CD2000F7620200036302000400FA0549B152B140
:10CD3000531E1A4007D1826001608380C260104692
:10CD400070470E2070470920704710B58468C2688C
:10CD50008388121B934208D3C26813400268D154DF
:10CD6000C3680133C360002010BD0420FCE7826863
:10CD7000C3689A420AD08268838813400268D35CF1
:10CD80000B70836801338360002070470520704773
:10CD900010B5D0E90243D1E90202A04272EB0303CD
:10CDA0002CBF0120002010BD08B50A4800F057FC38
:10CDB000094AD2E90031C018084BD3E9002341F1F8
:10CDC0000001904271EB030303D210F1807041F136
:10CDD000000108BD10260020903B0020083C0020E8
:10CDE00037B505460C460A4801A900F06CFC60B155
:10CDF0000570446001A9064800F08FFC18B1054891
:10CE000000F032FC002003B030BD0420FBE700BF7F
:10CE1000F43B002010260020294B73B51E780446F1
:10CE20001EB90026304602B070BD0028F9D0FFF7C9
:10CE3000BBFFD4E902239042994139D300230DF17D
:10CE400007008DF8073000F0B3FA23692BB94FF0D3
:10CE5000FF324FF0FF33C4E902239DF8070000F0D2
:10CE6000CBFAD4E90530984700250DF107008DF87D
:10CE7000075000F09DFA2369C3B1D4E90212B2F160
:10CE8000FF3F08BFB1F1FF3F05D05B1842F1000240
:10CE9000C4E9023235469DF8070000F0ADFA002DD6
:10CEA000BFD00848214601F024F8BBE71D46F2E751
:10CEB000B3F1FF3F08BFB2F1FF3FB2D0F1E700BFCF
:10CEC000983B00201C63020013B50023ADF804302A
:10CED00006238DF806300F490F480823582200F02A
:10CEE000DFFB044698B90D4A0D4801A900F0A8FAE5
:10CEF000044660B90A48012100F094FB0123094A65
:10CF00000748194600F0F6FA074B01221A7020462E
:10CF100002B010BD9C3B0020F43B002009D0010072
:10CF200010260020FFFF7F00983B002030B56AB13B
:10CF300003684FF0FF344FF0FF355A614A1E5142EB
:10CF4000C3E9024551411961002030BD0720FCE7CB
:10CF5000F7B5044600250DF1070017460E468DF87B
:10CF6000075000F025FAD4E90223B3F1FF3F08BFD0
:10CF7000B2F1FF3F07D1FFF717FF301841F1000171
:10CF8000C4E9020101259DF8070000F035FA55B10A
:10CF90002369A76103B126612146002003B0BDE8E3
:10CFA000F040FFF71DBF284603B0F0BD37B505467A
:10CFB00000240DF107008DF8074000F0F9F9D5E9DC
:10CFC0000223B3F1FF3F08BFB2F1FF3F1FBF4FF095
:10CFD000FF324FF0FF33C5E9022301249DF807001B
:10CFE00000F00AFA34B12946012003B0BDE8304010
:10CFF000FFF7F6BE204603B030BD0000014800F048
:10D000002EBB00BF102600202DE9F743064600F096
:10D0100011FB40B1624AD2E9003113F1807341F152
:10D020000001C2E900310021304600F012FB38B1A6
:10D030005C4C236823B12068FFF7EEFE00232360D9
:10D040000121304600F005FB20B1FFF7ADFE564B45
:10D05000C3E900015548534C01A900F06EFB4FF0A5
:10D06000FF384FF0FF39A0B9DFF844814D4D4046FD
:10D0700000F055FF002800F08580D0E90223B3F1CD
:10D08000FF3F08BFB2F1FF3F32D1404600F041FF01
:10D09000EDE70378012B20D0022B08D1444D284620
:10D0A00000F037FF002877D0C0E90289F7E75BB9C5
:10D0B0004168D1E90223B3F1FF3F08BFB2F1FF3F5E
:10D0C00002D03B4800F015FF01A9384800F060FB92
:10D0D00001A9364800F031FBC5E741682368994251
:10D0E00002D100232360EFE7314800F01BFFEBE79C
:10D0F000296891B12968D1E9020182428B412FD27E
:10D100002B68D3E90223B3F1FF3F08BFB2F1FF3F21
:10D1100003D02968404600F0ECFE404600F0F9FEDE
:10D12000D0E902490746FFF73FFE201A69EB0109E3
:10D13000012879F1000318DBB0F5D40F13D3FFF702
:10D140005DFF1C4A02441C484FF41603002100F006
:10D15000F1F990B92B6813B9304600F0C3F92F608C
:10D1600003B0BDE8F0832246EDE71348002100F04C
:10D1700066FA3846FFF750FE01E00D28F9D000238B
:10D180002B6074E7074B1B68002BE9D1304603B0D6
:10D19000BDE8F04300F0AAB9084B01221A7093E7EA
:10D1A000903B0020103C0020083C0020F43B002075
:10D1B0001C630200FFFF690010260020983B00203E
:10D1C0000648074A03780749D35C012213B10430AB
:10D1D00001F072BD0C3003F053B900BF18260020D7
:10D1E0008C3C00203C3C00200648074A0378074955
:10D1F000D35C012213B1043001F010BD0C3003F0F8
:10D20000EFB800BF182600208C3C00203D3C0020D9
:10D2100037B50578012D0DD0022D30D075B91F49D5
:10D220001F48FFF7A4FD002834D103B0BDE830400B
:10D23000FFF7DABF037A1BB9FFF7C2FF03B030BDB7
:10D240004368184C19782046FFF77FFD80B18DF8B0
:10D2500000500190144B68461B689847A168E3682A
:10D26000A2885B1A9A42E7D2104B01221A70E5E7B6
:10D27000A268E3689A42F1D08DF80000EAE7C3683B
:10D280008DF800500193FFF79BFF074B68461B6822
:10D290009847D3E703238DF80030F6E73D3C0020A4
:10D2A0002C3C0020183C0020143C0020283C00208E
:10D2B000F0B51F46234B89B004461A600D4600297D
:10D2C0003DD08A8820480968FFF730FD002834D116
:10D2D000AA89A9681D48FFF729FD00282DD11C4EF9
:10D2E0000FCE6D460FC596E80F0085E80F00636905
:10D2F0000693237C174A18488DF81C70003B18BF12
:10D3000001238DF81430637C002B14BF0E230023FF
:10D310008DF81530E3680293A368039323680193A3
:10D3200069466368009301F001F830B90B4B18703F
:10D330002368013301D0FFF743FF09B0F0BD072098
:10D34000FBE700BF143C0020183C00202C3C0020D0
:10D350002863020011D2010018260020283C00207A
:10D3600010B501460E48FFF7F0FC0446A8B90D4879
:10D370000D4A0378D35C63B1043001F043FC60B91B
:10D380000A490748FFF7F3FC38B9BDE81040FFF73A
:10D390002BBF0C3003F018F8F1E7204610BD00BF9A
:10D3A0002C3C0020182600208C3C00203D3C002016
:10D3B00070B5EFF3108672B60C4A946801239CB9DD
:10D3C00093600B4B0B4DD3F8801029401160C3F8CC
:10D3D0008050D3F8841051604FF0FF32C3F884209E
:10D3E000047006B962B670BD0370FAE7403C0020D5
:10D3F00000E100E0FC06FFBD084B9A6810B55AB189
:10D4000050B9EFF3108172B6054A1C6814605C686D
:10D410005460986001B962B610BD00BF403C002066
:10D4200000E100E0435882B03BB100234350435831
:10D430000193019B012002B070471846FBE70000F2
:10D44000F8B5204B4479204E43F824201F4A204B46
:10D4500006EBC4049B1A2279DB081B0432B143F0AB
:10D4600002001C49FFF7B0FA0820F8BD02680C88DA
:10D47000C2F8084590F904508A7804795201002DC9
:10D48000D2B219DB14494F1987F8002301226D0924
:10D4900004F01F0402FA04F441F82540427906EB37
:10D4A000C201012446F832000C7143F003000B491D
:10D4B000FFF78AFA0020D8E7094904F00F040A555B
:10D4C000ECE700BF543C00204C3C002024610200EB
:10D4D000846102004863020000E100E06A63020028
:10D4E00014ED00E0036801221A607047036801220E
:10D4F0005A60704773B501F15005AD000068ADB2D8
:10D500004FF480348C400026C0F80843C0F84843EC
:10D51000465101F5A8714559019522F07F42019DC0
:10D5200040F82120C0F844430BB1C0F8044302B0D6
:10D5300070BD00002DE9F74F0D4622F07F440268D0
:10D540004FF4803705F150068F408046B60002EB5D
:10D550008500C2F84873B6B2C2F80873D2F8041551
:10D5600099464FF0000BD0F84035C0F8401542F80E
:10D5700006B05B1A9259009223F07F43012B009A68
:10D580004FEA850A0CD1264B4FF4806043F001032B
:10D590009847D8F8003043F806B09B590193019B97
:10D5A000D8F80010D1F80465C1F84473A31B23F028
:10D5B0007F43012B1CD11A4B05F5A875013443F0AC
:10D5C000010341F825404FF480609847D8F80030B7
:10D5D000D3F804359E4209D1D8F800300020C3F8B2
:10D5E0004473C3F8047303B0BDE8F08F0D20FAE76D
:10D5F0008A44C9F1FF13CAF84045D1F80405221A3C
:10D60000013A22F07F4203F57F439342EED3002A92
:10D61000E2D10134CAF84045D1F804359842DAE73E
:10D620008063020003680222C3F8442309B1C3F8EF
:10D630000423704700684FF48271FFF7F3BE4FF484
:10D64000803303FA01F10368C3F84813C3F80813E1
:10D65000704750318900006889B2FFF7E3BE036864
:10D66000D3F804057047000090F90430002B09DB63
:10D670005A09012103F01F0301FA03F34032024962
:10D6800041F82230704700BF00E100E0024B034A3E
:10D690001B681068184700BF543C00204C3C002019
:10D6A00010B561B1B2FBF3F403FB1424A4B244B986
:10D6B000C0E9001484608281C381204610BD0E2021
:10D6C000FCE70920FAE737B550E8013F9DB2C4896D
:10D6D00025448489A54228BF2D1B0489A54202BF89
:10D6E000BFF32F8F002207E0C5EA030540E801548D
:10D6F000002CE9D14FF001028DF803200193019A2B
:10D700000A609DF8031001F0FF0321B1006810FAD0
:10D7100082F003B030BD1846FBE70A884B889A4276
:10D7200009D150E8012FC2EA024240E80123002B50
:10D73000F7D1012070470020704737B550E8023F0D
:10D740001FFAA3F5C488A54202BFBFF32F8F0022A2
:10D750000DE0C48925448489A54228BF2D1BC3EA56
:10D76000054540E80254002CE8D14FF001028DF845
:10D7700003200193019A0A609DF8031001F0FF0352
:10D7800021B1006800EB124003B030BD1846FBE742
:10D790000A884B889A4209D150E8022FC2EA2242F5
:10D7A00040E80223002BF7D101207047002070478A
:10D7B00001F01F024B090121914000EB830000F0B2
:10D7C0001EB801F01F0301229A404B0900EB8300B1
:10D7D000D14300F02CB84B0901F01F0150F8230091
:10D7E000C84000F00100704710B5034653E8000F31
:10D7F0000A4643E8002494F0000FF7D110BD10B59D
:10D80000034653E8002F42EA010043E8000494F085
:10D81000000FF6D110BD10B5034653E8000F00EA23
:10D82000010243E8002494F0000FF6D110BD10B5BA
:10D83000034653E8002F02EA010043E8000494F095
:10D84000000FF6D110BD10B5034653E8002F02EBD0
:10D85000010043E8000494F0000FF6D110BD10B5AC
:10D86000034653E8002FA2EB010043E8000494F0C4
:10D87000000FF6D110BD0121FFF7C1BF0021FFF756
:10D88000CABF10B590B1D0E9012301689B1ADBB281
:10D890000A60013BDBB2FF2B026802D1002010714D
:10D8A00010BD11684C1C14600B70F2E70E20F7E7F6
:10D8B00037B5054600240DF107008DF80740FFF746
:10D8C00077FD2A686B68116899420ED9481E10606E
:10D8D00011F8013CEC68298A01FB0344AB6811791B
:10D8E0001B1ADBB2994238BF13719DF80700FFF78E
:10D8F00083FD204603B030BD37B5054600230DF14A
:10D9000007000C468DF80730FFF752FD2A681368B0
:10D91000591C1160E968641A298AB4FBF1F41C707F
:10D920009DF80700FFF768FD03B030BD826810B5B1
:10D9300004462AB143690168006998470023A3603F
:10D9400010BD0EB403B5039921B104AB01AA019334
:10D9500000F076F802B05DF804EB03B070470A29D6
:10D9600038B504460D4602D10D21FFF7F8FFA36834
:10D970002268591CA160D554D4E901329A4204D3DB
:10D980002046BDE83840FFF7D1BF38BD2DE9F84F3C
:10D990009846DDE90A43154682460F460A464FF08F
:10D9A0000109AA420FD2C14538BFC14613F0010B8D
:10D9B00001D16CB900240126B8F1010F1BD908F17F
:10D9C000FF386E43F8E709F10109B2FBF5F2E8E729
:10D9D0009B070ED5B8F1000F0CBF30262026A145BD
:10D9E000E9D2013C31465046FFF7B9FF002CF6D191
:10D9F000E0E72026F3E7B7FBF6F39D42E1D9DFF835
:10DA00003C80B7FBF6F3504618F8031006FB13777B
:10DA1000FFF7A5FF3346AB42B6FBF5F6F1D2BBF1FB
:10DA2000000F02D00CB1A14501D3BDE8F88F202131
:10DA30005046013CFFF793FFF4E700BF8663020006
:10DA40002DE9F74F054617468846002900F03E812C
:10DA500018F8011B49B92B7B002B00F037812846B1
:10DA600003B0BDE8F04FFFF761BF252940F0B78054
:10DA7000002698F800302D2B424608F1010823D0EB
:10DA8000302B24D02B2B25D000242A2B02F101018E
:10DA900023D13B681A1D1B683A601C440A46137860
:10DAA0002E2B26D101324FF0000A104610F8011B30
:10DAB000A1F1300CBCF1090F1DD80A2303FB0A1396
:10DAC000A3F1300A0246F0E746F00106D1E746F03E
:10DAD0000206CEE746F00406CBE711F8013CA3F1BD
:10DAE00030000928DBD80A2202FB0434303C0A4605
:10DAF000CBE74FF0000A12F8011B01F0FB00682889
:10DB00009046F8D0782909D86F290CD8632962D0BB
:10DB100022D8252963D0582900F0888098F8003051
:10DB2000002B95D197E770390829F7D801A353F84E
:10DB300021F000BFA7DC01001DDB01001DDB01009F
:10DB40003DDC01001DDB01001BDC01001DDB0100D1
:10DB50001DDB01002DDC0100642901D06929DDD124
:10DB60003A68D2F80090111D89EAE9723960A2EB97
:10DB7000E9724FF0010B092A35DCD34538BFD34693
:10DB80002CB1B9F1000F01DB720700D5013CB307DE
:10DB900002D5BAF1000F03D0F00701D44CBB00242A
:10DBA000B9F1000F2DDAC9F100092D212846FFF740
:10DBB000D6FE06F00302022A04D1BAF1000F01D109
:10DBC0001CBB0024CDE9004653460A22494628469C
:10DBD000FFF7DCFEA2E73B681A1D19783A60284679
:10DBE000FFF7BDFE9AE70A230BF1010BB2FBF3F23C
:10DBF000C1E7A345D4D220212846013CFFF7AFFE60
:10DC0000CCE77107D5D52B21D0E7A345DAD2302157
:10DC10002846013CFFF7A3FED2E73968CDE900466C
:10DC20000A1D3A6053460A220968D0E739680A1D7E
:10DC30003A60CDE9004653461022F5E73B681A1DCD
:10DC40003A6016F00106D3F8009024D1B9F1000F24
:10DC500003D0484607F0E1FE0646B4421DD809F15C
:10DC6000FF3919F8011F00293FF458AF2846FFF784
:10DC700076FEF6E728460136FFF771FE19F8061022
:10DC80000029F7D1A642BFF449AF20212846013C24
:10DC9000FFF765FEF6E70026F0E720212846013C65
:10DCA000FFF75DFED9E73B681A1D3A603021284630
:10DCB0001C68FFF754FE78212846FFF750FE00222B
:10DCC0000823CDE900322146102280E703B0BDE8E9
:10DCD000F08F00BF2DE9F84FB0F806A04579D2F8D3
:10DCE00000B09DF828900AFB05F5043D88460BEB33
:10DCF0000301A94203F1040488BFA5EB030BB4FBA5
:10DD0000FAF607460AFB1644C2F800B04EB9AAEB71
:10DD100004055D4528BF5D46BBF1000F04D1BDE899
:10DD2000F88F3F68013EF1E7043408EB06003C44FD
:10DD30002A46B9F1000F0DD02146ABEB050B07F0D9
:10DD4000EEFDDA452E443F6855464FF0000428BFEB
:10DD50005D46E1E701462046EFE7FFF792BDF8B5E3
:10DD600046790146721E0546002393422D6803D36F
:10DD70000024A64202D8F8BD0133F6E70F68284612
:10DD8000FFF7BAFD01343946F3E72DE9F843068A77
:10DD9000CD1C0746FFF78CFD043E35440446B5FB19
:10DDA000F6F5F0B14FF48073EDB28380C680013D8B
:10DDB000076081464FF00008A84512D23846FFF7A9
:10DDC00077FD064648B163790133637108F10108B4
:10DDD000C9F8000007608146EEE72046FFF7BFFF65
:10DDE00034462046BDE8F88301210430FFF72BBDFF
:10DDF00010B5012104460430FFF731FDC0B220B94F
:10DE00002046BDE81040FFF7AABF10BD1FB5039222
:10DE10000022009203AAFFF75DFF05B05DF804FB46
:10DE20001FB503920122009203AAFFF753FF05B02A
:10DE30005DF804FB41DF7047064B10B500241C70F1
:10DE4000054B1C60BFF35F8F0449054800F03BF8A9
:10DE5000204610BD603C0020643C0020A06302000E
:10DE6000583C002007B500230DF107008DF807305E
:10DE7000FFF79EFAF1EE103A23F09F03E1EE103A1D
:10DE8000BFF35F8F0A4B4022C3F884219DF807003F
:10DE9000FFF7B2FA07F0C4F820B103B05DF804EB65
:10DEA000FFF7C8BF20BF40BF20BF03B05DF804FB31
:10DEB00000E100E0836800225A60C3E904229A600E
:10DEC000DA601A6070470B684A684360934208BF83
:10DED0000023016008BF43607047436843B1026894
:10DEE000916852680B449342436004BF002343602F
:10DEF000704770B5446806460D46206818B1B3688F
:10DF00002946984718B923682B60256070BD24689E
:10DF1000F3E74368186808B102681A6070474368FD
:10DF2000186870474368186800B97047884203D181
:10DF300002681A600120704703460068F4E7000099
:10DF400010B50D49A1F59472914201D800200FE05F
:10DF50008C1AE30F03EBE4035B1002EBC30452F8EB
:10DF60003330834205D802D204F10802ECE760683E
:10DF700010BD2146E8E700BFAC68020008B5FFF716
:10DF8000DFFF024B002808BF184608BD6F6702007C
:10DF900010B50446C0B2FFF7E3F9204610BD0000FB
:10DFA000BFF34F8F0549064BCA6802F4E062134382
:10DFB000CB60BFF34F8F00BFFDE700BF00ED00E077
:10DFC0000400FA054FF08053D3F83001A0F10D039F
:10DFD0005842584170470000024AD2F80034002BE2
:10DFE000FBD0704700E0014010B5FFF7EBFF40B1F8
:10DFF0004FF080430022C3F80C21C3F81021C3F86E
:10E000003825FFF7DFFF002846D04FF08052574BEE
:10E01000D2F80414C3F82015D2F80814C3F8241554
:10E02000D2F80C14C3F82815D2F81014C3F82C1524
:10E03000D2F81414C3F83015D2F81814C3F83415F4
:10E04000D2F81C14C3F84015D2F82014C3F84415B4
:10E05000D2F82414C3F84815D2F82814C3F84C1584
:10E06000D2F82C14C3F85015D2F83014C3F8541554
:10E07000D2F83414C3F86015D2F83814C3F8641514
:10E08000D2F83C14C3F86815D2F84014C3F86C15E4
:10E09000D2F84424C3F87025FFF794FF48B14FF03D
:10E0A0008043D3F80024D20744BF6FF00102C3F8C5
:10E0B00000242F4AD2F8883043F47003C2F8883025
:10E0C000BFF34F8FBFF36F8F4FF08053D3F83021E2
:10E0D0000D2A0ED1D3F83431022B02D8254AD35C55
:10E0E0003BB14FF01023D3F808224FF08043C3F820
:10E0F00058254FF01021D1F80C32DB0714D51E48FB
:10E100000123C0F80435FFF767FFD1F80C3223F084
:10E110000103C1F80C32FFF75FFF0023C0F804359C
:10E12000FFF75AFFFFF73CFFD1F80032002B03DB6B
:10E13000D1F80432002B14DA0F4901234FF01020DC
:10E14000C1F804351224FFF747FFC0F80042FFF77B
:10E1500043FFC0F80442FFF73FFF0023C1F8043536
:10E16000DEE7064B064A1A6010BD00BF00C0004043
:10E1700000ED00E0AC68020000E001402C26002029
:10E180000090D00338B5074C051E04F1080318BFF2
:10E190001C4623682BB11A6822605B6828469847A2
:10E1A000F7E738BD703C002020B9054B01225A70BA
:10E1B000FFF7E8BF012802D1014A9070F8E77047E5
:10E1C000683C002020B9034B01225A70FFF7DABFE8
:10E1D000704700BF683C002038B50E4C2378B3B9B7
:10E1E0000D486360A3602361E36000F0E7F8054633
:10E1F00006F016FF08B900F0EDF801232370074B75
:10E20000D3F800340BB10123A370284638BD85250F
:10E21000F5E700BF683C0020A9E1010000000140D3
:10E2200037B50D4C00230DF107008DF80730FFF7CF
:10E23000BFF8E368013BE360E36833B9074BD3F809
:10E24000005415B900F0D8F8A5709DF80700FFF745
:10E25000D3F803B030BD00BF683C0020000001408F
:10E26000012813B50CD0032820D038B9134B012254
:10E27000C3F88020BFF34F8FBFF36F8F02B010BD84
:10E280000F4C00230DF107008DF80730FFF790F8D1
:10E2900023780BB9FFF7A0FFE3689DF8070001336F
:10E2A000E3600123A370FFF7A7F8E7E700F092F817
:10E2B00002B0BDE81040FFF7B3BF00BF00E100E0CF
:10E2C000683C00201FB503788DF800304368019347
:10E2D00083688DF80830C368054A0393054B684688
:10E2E00053F8213052F82110984705B05DF804FB2F
:10E2F0007C3C0020843C00201FB503788DF8003062
:10E300004368019383688DF80830C368054A039316
:10E31000054B684653F8213052F82110984705B054
:10E320005DF804FB7C3C0020843C0020F0B5194BD8
:10E3300090F800C0DFF86CE043F82C20164B16462E
:10E340000A6943F82C204B7F0EF80C300C46074628
:10E350000FCC89B06D460FC594E80F0085E80F001B
:10E360003B78CDF810C01EF803304BB1002E0B4A9D
:10E37000694608BF3246381D00F068FB09B0F0BDA1
:10E38000002E074A694608BF324607F10C0001F02B
:10E390004BFFF3E7843C00207C3C0020C5E20100F9
:10E3A000F9E201008C3C002000F18040002382B0A3
:10E3B000036003680193019B02B07047044A13791C
:10E3C00023B90121106011711846704785207047EC
:10E3D000903C0020074B1A68D20704D4C02283F86F
:10E3E000002301221A604FF080430122C3F8182550
:10E3F000704700BF00E100E04FF0804208B5022303
:10E40000C2F808334FF48270FFF7CEFF0123D360C8
:10E41000D2F81834DB03FBD408BD00004FF0804273
:10E4200010B5D2F8003153B14FF48070FFF7BCFF44
:10E430000123C2F808330B4B00201B6898474FF0AC
:10E440008042D2F8043163B14FF48270FFF7ACFF21
:10E450000223C2F80833034BBDE810401B680120BB
:10E46000184710BD903C002000F1804000F5C040EE
:10E47000002382B0036003680193019B02B07047E0
:10E4800003681F2B83BF03F01F03036001484FF095
:10E49000A04070470003005007B5019001A8FFF7A6
:10E4A000EFFF019B00EB8300D0F8003723F44033EB
:10E4B000C0F80037D0F8003743EA0141C0F8001730
:10E4C00003B05DF804FB0000054B4FF0FF32072856
:10E4D00043F8202084BFC01880F85220704700BF46
:10E4E000983C002038B51E4C94F86430ABBB40F229
:10E4F000FF31FF205A09012A0CBF0A464FF0FF32B4
:10E5000003F01F05EA40D20748BFE21803F10103F8
:10E5100048BF82F830002A2BECD10021C8B201316B
:10E52000FFF7D2FF0C29F9D1062200210D4807F090
:10E530001FFA0D4BC02283F8062340221A604FF4C5
:10E54000BE70FFF791FF094B4FF00042C3F8042360
:10E55000012384F86430002038BD0820FCE700BFA8
:10E56000983C0020F63C002000E100E00060004004
:10E57000034B93F86400003818BF0120704700BFB8
:10E58000983C0020F7B53D4F3B18044693F93030D6
:10E59000002B71DA8B78C3F34003002B0BBF0825E7
:10E5A00000250C200820854202D1042003B0F0BDD4
:10E5B00057F82560013647D138196EB247F8252043
:10E5C00080F8306013B97B1983F852408B785A0772
:10E5D0001AD4D8073AD501A80194FFF751FF019B3F
:10E5E00000EB8300D0F8003723F00203C0F80037B7
:10E5F0002348E20804F0070C012303FA0CF310F897
:10E6000002C043EA0C03835488780B7810F00200B0
:10E6100028D0AD0005F1804505F5C0452402D5F8A8
:10E62000102522F44F3222F44072C5F810251B0445
:10E63000D5F8102504F47C5403F440331C431443F0
:10E64000C5F810450020B1E70135ACE701A84A78CC
:10E650000194FFF715FF019B03F5E073920040F86A
:10E660002320C5E7083E47FA86F797F85A4044EA60
:10E67000831387F85A3099E7082097E7983C0020E1
:10E68000F63C002073B5244D2E18044696F9302030
:10E69000072A1DDD083A45FA82F595F85A309B099C
:10E6A000032B10D1019001A8FFF7EAFE019BD0F8DF
:10E6B0001015D94001F001010231204602B0BDE839
:10E6C0007040FFF7E9BE012B0CBF02210321F4E7E4
:10E6D000D3B2072B1DD8930003F1804303F5C04349
:10E6E000D3F8100540F00100C3F8100502F1400016
:10E6F00040B2800080B2FFF7B7FE51B196F93030DA
:10E7000055F823302BB1012303FA02F2034BC3F86F
:10E71000042302B070BD00BF983C002000600040A0
:10E720002DE9FF470024CDE90244584D4FF4807293
:10E73000012102F1804303F5C04390B21B68012B15
:10E7400006D1D5F804330B4202D0FFF78DFE0C43FF
:10E750000432B2F5907F4FEA4101EAD14B4BD3F836
:10E760007C31012B11D14FF4BE70FFF77DFE4FF0CD
:10E77000A04344F00044D3F820250292C3F820259A
:10E78000D3F820280392C3F82028E3B2D3B1404F36
:10E7900000250126344210D0AB0003F1804303F57D
:10E7A000C043D3F81005D3F8101557F8253023B11E
:10E7B000C1F30141C0F3052098470135082D4FEA08
:10E7C0004606E7D1002C59DA314D324C324E4FF02B
:10E7D0000008012716F9013B5A1C3CD0C3F3C201C3
:10E7E00004A801445FFA83F911F8081C03F03F0202
:10E7F00003F0070307FA03F319422CD001A8019292
:10E80000FFF73EFE019B03F5E07350F82330C3F39E
:10E81000014ABAF1020F0CBF032102211046FFF793
:10E820003BFE01A80192FFF72BFE019B07FA03F3C1
:10E83000C0F82035AB1893F9303055F8233053B178
:10E840004FEA9911032904D0BAF1020F19D1012915
:10E8500001D11046984708F10108B8F1040FB9D169
:10E860004FF0A043D3F820250292C3F82025D4F816
:10E8700020350393C4F820351343A7D104B0BDE875
:10E88000F087BAF1030FE6D10229E1E7006000400A
:10E89000983C002000030050F23C0020014B1B6814
:10E8A000184700BF003D00200E4B984237B50C467C
:10E8B00002D0002003B030BD00230DF107008DF819
:10E8C0000730FEF775FD084B1D7915B901221C6054
:10E8D0001A719DF80700FEF78FFD002DE9D0112079
:10E8E000E8E700BF00200040003D0020034B9842B5
:10E8F00001BF034B00221A601A71704700200040CC
:10E90000003D00200023435082B043580193019BF7
:10E9100002B070471FB501238DF80030044BCDE9DC
:10E920000110D3E900126846904705B05DF804FB7A
:10E93000083D00207FB5434AD2F82461002E60D004
:10E9400010464FF49271FFF7DDFF02238DF800307F
:10E95000D2F88034C2F880340393D2F83C35029365
:10E96000394BDA6801920022C3E906226846D3E9EE
:10E97000001290473348D0F8443173B14FF4A2717C
:10E98000FFF7C0FF304B9A693AB10022C3E9062273
:10E99000D968D0F83C05FFF7BDFF2A48D0F82031F0
:10E9A000ABB14FF49071FFF7ADFF0123C360264B6D
:10E9B0005A6962B1D0F84C150291002299688DF81D
:10E9C000002001915A616846D3E9001290471D4822
:10E9D000D0F858319BB14FF4AC71FFF793FF1A4B4D
:10E9E0005A6962B1D0F84C150291002299688DF8ED
:10E9F000002001915A616846D3E90012904704B0A3
:10EA000070BDD2F81031002BB4D04FF4887110468D
:10EA1000FFF778FF0C4BD2F83C0599698842A9D1E1
:10EA2000DC69D96864B1D2F8005225F02005C2F83B
:10EA300000521A699C61DA60DE61FFF76BFF99E7AB
:10EA40009C61FAE700200040083D00202DE9F843D2
:10EA5000664E90F80480242303FB0863044693F871
:10EA600020300D469146002B40F0BC806049006884
:10EA7000FFF71AFF0746002840F0B68029684B1CB4
:10EA800010D01F2987BF5B4A01F01F030B464FF0D0
:10EA9000A0420120984003F5E073C2F80805032066
:10EAA00042F823006A68501C0DD01F2A8BBF02F069
:10EAB0001F0313464F484FF0A04003F5E0734FF09B
:10EAC000000C40F823C02068AB69C0F8243595F8E5
:10EAD00014C06B7DBCF1010F4CEA0303C0F86C3528
:10EAE000C0F80C15C0F814252BD1AB68591C0DD0FB
:10EAF0001F2B8BBF03F01F021A463E494FF0A04167
:10EB000002F5E0724FF0000C41F822C0E9684A1C9F
:10EB100013D01F2987BF374A01F01F0C8C464FF0D6
:10EB2000A0424FF0010E0EFA0CFE0CF5E07CC2F88C
:10EB300008E54FF0030E42F82CE0C0F80815C0F8C5
:10EB40001035242202FB08F2B318C3F804902B6995
:10EB5000B350B9F1000F2FD04FF488712A7FFFF71F
:10EB6000D1FE20684FF49071FFF7CCFE20684FF47F
:10EB70009271FFF7C7FE20684FF4A271FFF7C2FE43
:10EB80004FF4AC712068FFF7BDFE23681A49C3F843
:10EB90000413190B43F307335201002BD2B21CDBD1
:10EBA0001648C51885F8002301225B0901F01F01F2
:10EBB00002FA01F140F8231023680822C3F8002567
:10EBC000242303FB08660023C6E90633736101238F
:10EBD00086F820303846BDE8F883094B01F00F0174
:10EBE0005A54E9E70827F5E71127F3E7083D002025
:10EBF00035E90100000300501003420000E100E08D
:10EC000014ED00E00279044B242101FB0233586922
:10EC1000003818BF01207047083D002001F0604314
:10EC2000B3F1005F2DE9F0470646884692463BD196
:10EC300090F80490FFF7E6FF0446002836D11D4FF8
:10EC40003068242505FB09754FF49071C5F814A0B0
:10EC5000C5F80880FFF756FE4FF4AC713068FFF737
:10EC600051FE33686A69A968C3F84415C3F848259A
:10EC700001229A606A68DAB9D3F82021D3F85801E2
:10EC80001AB90028F8D00F2007E00028FBD1012294
:10EC9000DA60D3F85821002AFBD0242303FB09773C
:10ECA00000237B61BDE8F0871020FBE71120F9E726
:10ECB0002046F7E7083D0020F8B501F06043B3F1C6
:10ECC000005F04460F465ED10379304D242101FBDD
:10ECD0000351496821B100684FF40476C0F8086315
:10ECE000242000FB03539E6956B1D869002839D00F
:10ECF00021B123684FF40472C3F80423112030E0DB
:10ED00009A61DF60DE6120684FF48871FFF7FAFDD9
:10ED100020684FF4A271FFF7F5FD2368C3F834753E
:10ED2000C3F8382516BB01221A602479242202FB7D
:10ED3000045252680ABBD3F81011D3F84421D3F817
:10ED40002401114302D10028F5D00A46242303FBF5
:10ED500004550023984218BF03209A42AB6118BFA4
:10ED60000F20F8BD1F61DA610126CCE7D3F800223D
:10ED700042F02002C3F80022D7E74FF40472C3F830
:10ED800004230020EDE71020EBE700BF083D002042
:10ED90002DE9F74F4FF00009154D164F06464FF07D
:10EDA000040AC8465FFA89FB01240DF1070004FA42
:10EDB0000BF48DF80780FEF7FBFA2C4208D03B6875
:10EDC00014EA030201BF23433B6086F800B0924679
:10EDD0009DF80700FEF710FBBAF1000F03D0A54322
:10EDE00009F10109DED1504603B0BDE8F08F00BF44
:10EDF000FFFF01002C3D0020012337B503FA00F589
:10EE0000C5F31003ABB10C4B0024C3F808550DF14A
:10EE100007008DF80740FEF7CBFA084B186820EA88
:10EE2000050018609DF80700FEF7E6FA204603B0DB
:10EE300030BD0720FBE700BF00F001402C3D002063
:10EE400010B5A1B19AB101238340C3F3100484B17A
:10EE50000A4C246823420ED0C00000F1804000F527
:10EE6000F830C0F81015C0F81425002010BD0E2091
:10EE7000FCE70720FAE70820F8E700BF2C3D002058
:10EE8000012202FA00F3580C400440B91BB1064AB3
:10EE90001268134205D0054AC2F8043570470720AE
:10EEA00070470820704700BF2C3D002000F0014053
:10EEB000012202FA00F3580C400440B91BB1064A83
:10EEC0001268134205D0054AC2F80835704707207A
:10EED00070470820704700BF2C3D002000F0014023
:10EEE0000023435082B043580193019B02B0704706
:10EEF00038B51D4602230B710B684A7104467BB17D
:10EF000012F0040F0CBF82219221100748BF41F07C
:10EF10002001D306236848BF21F08001C3F8001305
:10EF200020684FF48271FFF7DBFF12F0800F20683A
:10EF300005BF012343514019002038BD2DE9F04F92
:10EF4000544E077906EBC70385B01B7905460C467E
:10EF50004FEAC70A002B40F09B8046F83720DFF8C5
:10EF600040E101F1FF3C04F1030B69464FF0010859
:10EF70001CF8012FFF2A00F0828022F08003100687
:10EF80000B606FD51F2B87BF02F01F00F14618469C
:10EF90004FF0A04908FA00F0C9F808051F2B8ABFF6
:10EFA00002F01F034FF0A042724603F5E073032006
:10EFB00042F82300E34501F10401D9D12868009B00
:10EFC000C0F86035019BC0F86435029BC0F8683515
:10EFD0000122039BC0F86C35C0F8002594F805C0E9
:10EFE000A1792389C0F80CC5C0F80415C0F808350C
:10EFF0006389C0F810350023C0F800324FF48E71D9
:10F00000C0F80033FFF76CFF28684FF48871FFF7F2
:10F0100067FF28684FF48A71FFF762FF28684FF492
:10F020008271FFF75DFF56F83730A3B12B68217965
:10F0300043F3073049010028C3F30733C9B222DB89
:10F04000154C251885F80013400903F01F0302FA38
:10F0500003F344F82030564401233371002005B0F7
:10F06000BDE8F08F1F2B87BF02F01F00F146184646
:10F070004FF0A04908FA00F0C9F80C058EE74FF0F0
:10F08000FF330B6096E7054A03F00F03D154E2E724
:10F090000820E4E7303D002000E100E014ED00E04E
:10F0A0000003005003681A0B43F30733002B10B51D
:10F0B00004790CDB02F01F015B0901228A40203336
:10F0C000074941F82320BFF34F8FBFF36F8F0368C9
:10F0D0000022C3F80025034B03EBC4031A7110BDD3
:10F0E00000E100E0303D0020F0B50E461D461C4911
:10F0F00003790468D6F800E0B6F804C0B768C4F82D
:10F1000020E501EBC301F368C4F824C5C4F82875F1
:10F11000C4F82C35C4F840E5C4F844C5C4F84875B3
:10F12000C4F84C3502F0010303EB5202C4F8142575
:10F13000EA0712D415F0020203D0002B14BF0822F4
:10F140000422002BC4F8002218BF0C23EAB208BF27
:10F150000823BDE8F040FFF7CBBE1022F1E700BF67
:10F16000303D0020F0B40D46047917492F68049E05
:10F1700001EBC4010468C4F82075AF88C4F8247595
:10F18000AF68ED68C4F82875C4F82C551568C4F844
:10F1900040559588C4F844559568D268C4F84855D8
:10F1A000C4F84C25C4F81435F3070AD416F002034A
:10F1B00018BF0423C4F80032F2B20823F0BCFFF7F2
:10F1C00097BE1023F6E700BF303D00200379084AC0
:10F1D000016802EBC3021379D1F80411DBB219B94B
:10F1E000981E18BF0120704701201071704700BFA2
:10F1F000303D002038B503680022C3F80022012208
:10F200005A6005460C46FFF7E1FF38B92846FFF77C
:10F21000DDFF18B9002CF9D1204638BD0124FBE7E9
:10F220002148D0F8103110B55BB14FF48871FFF769
:10F2300057FE1E4B5A79510703D51B680BB10120AD
:10F2400098471948D0F814315BB14FF48A71FFF731
:10F2500047FE164B5A79120703D51B680BB10220E3
:10F2600098471148D0F81C315BB14FF48E71FFF70D
:10F2700037FE0E4B587910F0100002D11B6803B115
:10F2800098470948D0F8043163B14FF48271FFF711
:10F2900027FE064B01221A711B681BB1BDE8104006
:10F2A0000320184710BD00BF00C00140303D0020C2
:10F2B00000F1804000F5E040002382B00360036865
:10F2C0000193019B02B07047F0B5524B524CD3F8FA
:10F2D000043185B0002B3DD094F82E204FF482707D
:10F2E000FFF7E6FF2AB394F82F3013BB494AD2F850
:10F2F0000031002B32D04FF48070FFF7D9FF638BC1
:10F3000094F82D00834250D921891B1A9BB289B2EF
:10F310006383CB1A616801EB4303C2F82C36C2F851
:10F3200030064FF48270FFF7C3FF3A4B01225A6058
:10F3300014E0636802932389ADF80C30E368002180
:10F340008DF8041033BB2374236801A89847002369
:10F3500084F82F3094F82E30002BC7D12D4BD3F8E2
:10F3600010315BB14FF48870FFF7A2FF00232374C4
:10F3700002238DF8043001A823689847254BD3F861
:10F380001431EBB14FF48A70FFF792FF002323741E
:10F3900005B0F0BD208B608363602081E160002AAE
:10F3A000D2D11C4B01221A60CEE7BAD1E368012109
:10F3B00084F82F1013B100216183AEE76383B0E7B7
:10F3C00066694FF000470125002EE1D0B6FA86F2BB
:10F3D00027FA02F34632920026EA030602F180433E
:10F3E00003F5E0431B68002BEED01046A2F58C72AB
:10F3F000FFF75EFFD30882F00402C2F380028DF8AB
:10F4000008308DF8045023688DF8092001A898472A
:10F41000DAE700BF00700040383D002038B5204AD0
:10F4200092F82C300446002B37D111601D4900782A
:10F43000C1F8F0056078C1F8F4050125E07813748F
:10F4400082F82D30536182F82F306FF0004382F83C
:10F450002E0082F82C504FF48270C1F80833FFF769
:10F4600027FF4FF48070FFF723FF4FF48A70FFF7F8
:10F470001FFFA3780C485B01DBB280F807338023C1
:10F4800003600223C1F8043392F82E300BB1C1F8A7
:10F490000453C1F80055002038BD0820FCE700BF28
:10F4A000383D00200070004000E100E030B5224B04
:10F4B0001A7C002A3ED100F10C0403EB44021279BD
:10F4C00022B993F82D20013283F82D2003EB440359
:10F4D000CA790C7A8D781A715C714B782D021B01F8
:10F4E00005F4E06503F030032B430D7805F00305C8
:10F4F0002B43CD782D0305F480552B430D792D0436
:10F5000005F4E0252B434D7989792D0505F4801507
:10F51000090601F080712B430B43010101F1804189
:10F5200001F5E0410020C1F81835C1F81445C1F8D3
:10F53000102530BD1120FCE7383D002070B5264A6B
:10F54000264B05461220C2F808031C7C022C03D16E
:10F55000C2F80403112070BD187C01281CD1D868A2
:10F5600018B10223C2F80433F4E7DD60198393F87D
:10F570002E305BB9D2F80031002BFBD04FF48070F5
:10F58000FFF796FEC2F82C56C2F83016124B022234
:10F59000C3F804230020DEE7022093F82E40C2F8CF
:10F5A0000403012600201E745D601981D8603CB1FF
:10F5B000598393F82D30C2F82C56C2F83036CAE77A
:10F5C000C2F82C564FF48070C2F83016FFF770FE68
:10F5D00016602046BFE700BF00700040383D0020A5
:10F5E000F0B51B4F8BB207EB001443EA0243C4F89B
:10F5F0001C35184B40005C6900F1010C4FF00046CF
:10F6000011F5006F26FA0CF64FF0800505FA00F5AB
:10F610000BBFB44334435C615C610CBFC7F8085353
:10F62000C7F8045340244FF000455969844025FA37
:10F6300000F040F2FF75AA42054A0BBF8143014327
:10F64000596159610CBFC2F80843C2F80443F0BDC8
:10F6500000700040383D002010B5124B1A7CF2B902
:10F6600000F10C0103EB4102127922B193F82D2035
:10F67000013A83F82D2003EB410300249C80030111
:10F6800003F1804303F5E0430749C3F8144540F212
:10F69000FF72C3F81045FFF7A3FF204610BD1120ED
:10F6A000FCE700BF383D002000F8FFFF38B5144BE1
:10F6B0006FF00042C3F80823124A8021C2F880107C
:10F6C000BFF34F8FBFF36F8F01229A6042F2107227
:10F6D000D3F8141109B9013AFAD10B4D0024C3F83B
:10F6E00000452C7405EB44031B7F13B1E0B2FFF718
:10F6F000B3FF0134082CF5D1002385F82C3038BD38
:10F700000070004000E100E0383D00202DE9F743A3
:10F71000002406460F4600F5A0754FF48038A14638
:10F720002B688BB1D6F8043308FA04F21A420BD0D6
:10F73000C5F800902B680193019BA30003F5A0730B
:10F7400098B2D7E9003198470134062C05F1040539
:10F75000E6D103B0BDE8F083F7B506792F4D0C2351
:10F760007343EF183C7A002C55D1EA504B687B600C
:10F77000477903682246A446D4B2A7423CD8CA7847
:10F7800043F307345201002CC3F30733D2B23DDBFD
:10F79000234F07EB040C8CF800230122640903F0CB
:10F7A0001F0302FA03F347F8243003684A78D3F8BA
:10F7B000040502F0030220F003000243C3F804250D
:10F7C000D3F808058A7820F0030002F00302024310
:10F7D000C3F80825D3F810050A7820F00F0102F0CD
:10F7E0000F020A43C3F810250C2303FB065501231F
:10F7F0002B72002003B0F0BD940004F5A074013218
:10F8000043F804C01C590194019CB5E7054C03F072
:10F810000F03E254C9E70820ECE700BF683D002071
:10F8200000E100E014ED00E0036801221A600279B3
:10F83000034B0C2101FB023302221A72704700BFF6
:10F84000683D0020036801221A610179024B0C20F7
:10F8500000FB01331A727047683D002038B5036819
:10F860001A0B43F30733002B04460CDB02F01F0195
:10F870005B0901228A4020330D4941F82320BFF360
:10F880004F8FBFF36F8F23680025D3F80022C3F892
:10F8900000524FF0FF32C3F808232046FFF7D2FF93
:10F8A0002279044B0C2101FB02331D7238BD00BFCD
:10F8B00000E100E0683D00200279044B0C2101FBCF
:10F8C0000233187A831E584258417047683D002021
:10F8D00003680122DA6070478B0040330268DBB2B4
:10F8E0000120D05001F5A87152F82100704737B5BA
:10F8F0004FF4803400688C407BB18B0003F5A0731B
:10F900000025C550C3580193019BC0F8044301F57D
:10F91000A87140F8212003B030BDC0F80843F6E7D5
:10F9200070B4046840F20116D4F800528E4025EA03
:10F930000605C4F80052D4F800522B43C4F8003234
:10F940009DF80C3070BCFFF7D2BF0000014902489F
:10F95000FFF7DCBE683D002000A0014001490248DD
:10F96000FFF7D4BE743D002000B001400023435097
:10F9700082B043580193019B02B070478B6A4A6B77
:10F980009A4210B54FF0010305D2496A8A5CC0F86B
:10F990001C251A4604E091F82C201AB1C3610022FC
:10F9A000104610BD0C6A640603D5C36181F82D3082
:10F9B000F6E74361EDE770B5D0F8046105460C4603
:10F9C00026B14FF48271FFF7D1FF012694F82F2062
:10F9D00022B34FF492712846FFF7C8FF4FF48E719F
:10F9E000FFF7C4FF4FF48471FFF7C0FF002E69D00A
:10F9F00094F82F20002384F82D3092BBA36A616B0A
:10FA000099421CBF1646052386F001061CBFC5F8A7
:10FA10000025C5F8003584F82F6023E0D5F824319F
:10FA20004BB14FF492712846FFF7A0FF01236B61A1
:10FA300084F82F30DAE7D5F81C31ABB14FF48E7172
:10FA40002846FFF793FF636B01336363D5F82431D6
:10FA500013B14FF49271E7E72146FFF78FFF0028BB
:10FA6000C4D10022104670BDD5F80831002BBDD09E
:10FA70004FF484712846FFF779FFD5F82431002B25
:10FA8000E7D1636BA16A8B42B0D2616AD5F81805E1
:10FA9000C854636BA16A0133481E8342636308D173
:10FAA000206A400610D40223C5F8003201232B62DD
:10FAB0009CE78B42FAD1236A5B0697D5022384F830
:10FAC0002D30CFE70122CDE78B42EFD1F6E70000E2
:10FAD00037B5314B01930D464FF48271FFF746FF66
:10FAE0004FF49271FFF742FF4FF48E71FFF73EFF24
:10FAF0004FF48471FFF73AFF0023C0F800326B63C4
:10FB000085F82F300123036295F82D209A4218BF03
:10FB1000836029460446FFF731FF2B6883B140F22A
:10FB20008623AB60AB68C4F80433002003B030BD5B
:10FB300029462046FFF73FFF28B1019B013B019377
:10FB4000019B002BF4DC95F82F0050B9019B002B92
:10FB5000ECDC0023C4F800350523C4F8003503208D
:10FB6000E4E7D4F8C434C4F8C43493B113F0010FFB
:10FB700014BF4FF40240032048F2012213F0020F99
:10FB800018BF104613F0040F48F2022318BF18469E
:10FB9000DCE70320DAE700BFA086010037B5344B6D
:10FBA00001930D464FF48271FFF7E0FE4FF492711E
:10FBB000FFF7DCFE4FF48E71FFF7D8FE4FF484712F
:10FBC000FFF7D4FE00236B6385F82F30AB6A012B5F
:10FBD000044617D12B6A5B0614D40223C4F8003202
:10FBE0000123236295F82D20022A18BF23602B6879
:10FBF00093B140F28623AB60AB68C4F804330020B5
:10FC000003B030BD0123E9E729462046FFF7D3FEC4
:10FC100028B1019B013B0193019B002BF4DC95F87B
:10FC20002F0050B9019B002BEADC0023C4F80035FB
:10FC30000523C4F800350320E2E7D4F8C434C4F83F
:10FC4000C43493B113F0010F14BF4FF402400320EA
:10FC500048F2012213F0020F18BF104613F0040FF0
:10FC600048F2022318BF1846DCE70320DAE700BF9A
:10FC7000A0860100F0B52B4C2B4887B02146FFF73A
:10FC80009AFE002840D194F82F70D4F820C0FFB914
:10FC9000237B9A1E012A1BD8616AA269914217D15F
:10FCA000E2696262CCF3401C62691F48A262032BC6
:10FCB00084F82CC084F82D70214604D107B0BDE82B
:10FCC000F040FFF705BF07B0BDE8F040FFF766BFA3
:10FCD000164E0FCE01AD0FC533682B60FFB1124A2F
:10FCE000D2F8C434C2F8C43499070FD501238DF873
:10FCF000003000231CF0040F84F8303000D01FB116
:10FD0000D4E900316846984707B0F0BD5A0701D5DD
:10FD10000223ECE7DB074CBF03230423E7E78DF85E
:10FD20000070E6E7803D0020003000408C3D002060
:10FD30002DE9F84F07793A4E4FF03C0A0AFB07FAD3
:10FD400006EB0A059B4695F82E3080460C469146F8
:10FD5000002B61D133490068FEF7A6FD00285DD174
:10FD60002168637B85F838301F298CBF01F01F03A1
:10FD70000B4603F5E07388BF2B4AA86098BF4FF08D
:10FD8000A04240F20C6C85F8300042F823C0626853
:10FD9000C5F804B01F2A8CBF02F01F03134685F874
:10FDA0002D0085F8310003F5E07388BF1E4D46F83D
:10FDB0000A9098BF4FF0A04545F823C0D8F800300E
:10FDC000C3F80815C3F80C25A268C3F82425B9F1B7
:10FDD000000F14D0227B43F3073152010029C3F3F3
:10FDE0000733D2B213DB114C651885F800230122CA
:10FDF000490903F01F0302FA03F344F821303C23BE
:10FE000003FB0766012386F82E30BDE8F88F08490A
:10FE100003F00F03CA54F2E70820F6E71120F4E7D5
:10FE2000803D002075FC01000003005000E100E06F
:10FE300014ED00E0036802790521C3F80015044BB6
:10FE40003C2101FB0233022283F82E20704700BFC1
:10FE5000803D002003680A4A0179C3F80823D3F8DB
:10FE6000002222F00302C3F800220022C3F800257A
:10FE7000044B3C2202FB0133012283F82E20704701
:10FE800086420400803D002070B50679234D3C2356
:10FE900073430446EB5893B103681A0B43F30733DB
:10FEA000002B0CDB02F01F015B0901228A4020338A
:10FEB0001B4941F82320BFF34F8FBFF36F8F2046BC
:10FEC000FFF7C8FF2068FEF711FD3C2303FB065334
:10FED00093F83830DBB92268D2F808351F2B86BF7B
:10FEE00003F01F030F484FF0A04003F5E073022119
:10FEF00040F82310D2F80C351F2B86BF03F01F03E8
:10FF0000084A4FF0A04203F5E07342F823103C2367
:10FF100003FB0655002385F82E3070BD803D002080
:10FF200000E100E0000300502DE9F047314F047973
:10FF3000D0F800903C2303FB04730D4693F82D305A
:10FF4000012B944604D10B78012B06D1082011E037
:10FF5000022B02D10B78012BF8D13C26264BC9F895
:10FF6000083306FB047696F830302BB1B368C9F835
:10FF700004331120BDE8F0878CF00403C3F3800341
:10FF800086F83030C6F820C0A846B8E80F0006F161
:10FF90000C0EAEE80F00D8F80030CEF800306B68D9
:10FFA000B362EB6873626B78C9F888352B78C4EB61
:10FFB000041A012B07EB8A0A17D09BB9CCF3401C1B
:10FFC0003C2303FB0473514683F82CC04846FFF7DB
:10FFD0007FFD3C235C433A193B59002BCAD182F880
:10FFE0003030C7E74FF0010CEAE751464846FFF7CB
:10FFF000D5FDEEE7803D00208642040010B586B0B6
:020000022000DC
:100000000024CDE902349DF820308DF80510A3427C
:10001000CDE9042401A914BF202222468DF8044012
:10002000FFF782FF06B010BD10B586B00124029321
:100030000023CDE903328DF805101A4601A98DF889
:1000400004400593FFF770FF06B010BD0023435036
:1000500082B043580193019B02B070470A4610B525
:100060004FF48E71FFF7F2FF136A9168C95C136A4F
:1000700001331362C0F81C1510BD024608B50068B4
:100080004FF49271FFF7E2FF10684FF48471FFF7AD
:10009000DDFF136801221A6008BD8B690A4610B59E
:1000A0004FF4847123B9FFF7D1FFD0F8183510BD94
:1000B000FFF7CCFF536AD168D0F81805C854536ACB
:1000C00001335362F3E700001FB501238DF80030C0
:1000D000044BCDE90110D3E900126846904705B002
:1000E0005DF804FBBC3D002030B54D4DD5F8043320
:1000F0009A0585B051D5D5F82431002B4DD04FF459
:1001000092712846FFF7A2FF4FF40173C5F8083338
:10011000444B93F829200AB901226A60404902221F
:100120008DF80020D1F88024C1F8802403929A69C8
:100130000292DA6801920022C3E906226846D3E9F6
:10014000001290473648D0F81C315BB1354A5169EE
:10015000136A99424DD992F82830002B49D11146A3
:10016000FFF77CFF2E48D0F84431002B56D04FF4D7
:10017000A271FFF76BFF2B4B93F829200AB10122E4
:1001800002609A69002A49D0586AD96800229A61A7
:1001900005B0BDE83040FFF797BFD5F804335B07E3
:1001A000D0D5D5F80831002BCCD01E4C1C482146A8
:1001B000FFF773FF636AA2699A42C3D1E369E168FA
:1001C0004BB1A3612369E3600023606AE36163626A
:1001D000FFF77AFFB6E794F829300BB901236B607B
:1001E0000F4B4FF40172C3F808230023606AA36128
:1001F000EEE70B484FF48E71FFF728FF5369002B91
:10020000B0D051690291002391688DF800300191BE
:1002100053616846D2E900139847A3E705B030BDA3
:1002200000200040BC3D00202DE9F843604D90F8CF
:1002300004802C2303FB0853064693F82A300C460F
:100240009146002B40F0AF805A490068FEF72CFB26
:100250000746002840F0A9802268531C10D01F2AAE
:1002600087BF554902F01F0313464FF0A0410120FC
:10027000984003F5E073C1F80805032041F8230016
:100280006168481C0DD01F298BBF01F01F030B466E
:1002900049484FF0A04003F5E0734FF0000C40F8E0
:1002A00023C03068A369C0F8243594F814C0637D76
:1002B000BCF1010F4CEA0303C0F86C35C0F814150B
:1002C000C0F80C252BD1A368591C0DD01F2B8BBF58
:1002D00003F01F021A4638494FF0A04102F5E072C0
:1002E0004FF0000C41F822C0E1684A1C13D01F29CE
:1002F00087BF314A01F01F0C8C464FF0A0424FF0EF
:10030000010E0EFA0CFE0CF5E07CC2F808E54FF089
:10031000030E42F82CE0C0F80815C0F810352C2266
:1003200002FB08F2AB18C3F804902369AB50B9F193
:10033000000F20D04FF48E71247FFFF787FE4FF41B
:10034000A2713068FFF782FE32681C4BC2F804339A
:10035000130B42F307326101002AC9B21EDB1848B1
:10036000841884F800130121520903F01F0301FAD5
:1003700003F340F8223033680422C3F800252C230D
:1003800003FB08530022C3E9062283F829205A619F
:10039000012283F82A203846BDE8F883094A03F091
:1003A0000F03D154E7E70827F5E71127F3E700BF6C
:1003B000BC3D0020E9000200000300508000020064
:1003C00000E100E014ED00E00279044B2C2101FB78
:1003D00002335869003818BF01207047BC3D002027
:1003E0002DE9F84F064690F8048089469246FFF7BB
:1003F000EBFF044600283CD1204F2C2508FB057B51
:100400004FF48E71CBF814A0CBF80890CBF82000F5
:100410008BF828003068FFF719FE306801238360ED
:100420005946FFF71BFEDBF804305D461BBB306806
:10043000DBF814402B6A9C4211D83368D3F81C2196
:10044000002AFBD00122DA6000202C2303FB08776E
:1004500000237B61BDE8F88F95F828303BB9D0F8D0
:100460001C31002BF8D05946FFF7F8FDE2E70F20CA
:10047000EBE71120EEE72046ECE700BFBC3D002093
:100480002DE9F0473A4D07792C2303FB0753064625
:100490005C6824B103684FF40170C3F808032C238F
:1004A00003FB0753986950B1D869002841D024B1A3
:1004B00033684FF40172C3F80423112436E09A61C3
:1004C000D9605862D8612C2303FB075393F8293075
:1004D0001BB910B93046FFF7D0FD4FF02C0808FBD0
:1004E000075A3068DAF80430002B37D14FF4A27184
:1004F000D046FFF7ABFD3068D0F82491D0F8083132
:10050000D0F84441CBB914B9B9F1000FF3D02C2382
:1005100003FB07550023AB61B9F1000F24D12CBBBD
:1005200095F8291033680122B1B11A602046BDE860
:10053000F0871961DA610120C5E7B9F1000FE6D152
:10054000002CE4D14146FFF7A8FDDAF82430DAF8B0
:1005500018209A42CFD8DAE75A60E7E74FF40173E0
:10056000C0F804330024E1E70324DFE70F24DDE7CC
:10057000BC3D00201FB503788DF800308388ADF8AE
:10058000043083688DF80630C3688DF8073003693E
:1005900002934369054A0393054B684653F821309B
:1005A00052F82110984705B05DF804FBE83D0020A3
:1005B000F03D0020024B4FF4807043F001031847D8
:1005C000F06802001F2886BF054A00F01F004FF0A8
:1005D000A042012303FA00F0C2F80805704700BFEB
:1005E000000300502DE9F047154690F80080394A85
:1005F00042F82850384A42F828304B7B06460C46D1
:10060000A3B30868DFF8D8904FF0A04100F5E0737D
:1006100040F20C6241F82320636803F5E073002781
:1006200041F82320FFF7CEFF6068FFF7CBFF236878
:1006300003F5E07340F20D6241F82320636803F58F
:10064000E0734FF0010A41F82320FFF7B3FF63681E
:100650001F2B8ABF4A464FF0A04203F01F03D2F877
:10066000102522FA03F3DB070BD507BB002D1B4A2D
:10067000434608BF2A462146301DBDE8F047FFF734
:1006800057BB23681F2B86BF03F01F034A464FF05A
:10069000A0420AFA03F3C2F80C35FFF78BFF0137CB
:1006A0002068FFF78FFFFFF785FF092FCFD1636821
:1006B0001F2B86BF0A4903F01F034FF0A041012200
:1006C00002FA03F3C1F80C35FFF774FF6068FFF717
:1006D00079FFCBE7F03D0020E83D002075050200E2
:1006E00000030050032811D8012A0AD101290FD193
:1006F00000F10E02D2B20D4B00EB40001A54002064
:1007000070470129F7D0022904D049B1072070476A
:100710000022F8E7054B00EB400018444270EEE77A
:10072000024B00EB400018448270E8E7F83D0020DF
:1007300008B5012202210020FFF7D4FF08B10728E5
:1007400010D1072202210120FFF7CCFF08B10728B2
:1007500008D100210A220846FFF7C4FF10B107287C
:1007600008BF002008BD00000388102B10B502D080
:10077000112B1ED010BD1A4C2168B1B901220846B8
:10078000FFF7B0FF08B1072824D10722022101207A
:10079000FFF7A8FF08B107281CD10422022100207E
:1007A000FFF7A0FF08B1072814D1236801332360A5
:1007B000E0E70B4A1368013B1360002BDAD1FFF727
:1007C000B7FF0028D6D0074B1B68002BD2D0BDE85E
:1007D00010401847034B1B68002BE6D09847E4E70E
:1007E000083E0020043E002007B50378012B06D008
:1007F000022B00D043B90A4B01221A7001E0084ACB
:10080000137003B05DF804FB064B1B68002BF8D097
:100810000022009101920021024600209847F0E753
:10082000183E0020143E002030B585B0CDE900010F
:1008300002920222089C03921D468BB91A460A486E
:100840006946FFF7CFFE044638B9084B08481D60DB
:10085000FFF7F0FA204605B030BD4FF0FF30FAE761
:10086000044A2346EBE700BFF8680200143E00206C
:10087000FC680200E907020008B50548FFF7EAFA3C
:100880000348FFF701FB034B00221A6008BD00BFBD
:10089000FC680200143E0020F0B5454F454D85B080
:1008A000044600260123009341488DF80F600DF1A6
:1008B0000F026821FFF7A2FB012318B14FF0FF30B0
:1008C00005B0F0BDAA1968213846FFF7ADFB002836
:1008D000F4D10136082EE5D1AE78EB7869782A7824
:1008E000C6F3021707EB870706F00F0606EB47066D
:1008F000C3F3011707EB870703F00F0303EB47036D
:1009000003F01F0306F03F065B0143EA8623C1F3B1
:10091000021606EB860601F00F0101EB460101F01D
:100920003F01160943EA014302F00F020A2101FBCD
:10093000062202EB820243EAC253626802F01F02FF
:10094000134363602A7962F3840323716A79C2F3E3
:10095000011303EB830302F00F0202EB4303E2787F
:1009600003F0070602F01F0242EA4612E270227903
:10097000C3F3C10322F0030213432371AB79C3F322
:10098000001202EB820203F00F0303EB4203E27852
:1009900063F34402E270EB791A0903F00F0311FBD1
:1009A0000231236801F5FA6161F31803236087E7D8
:1009B000FC6802000C3E0020C1880A23F0B5C1F398
:1009C00089116425B1FBF5F2B1FBF3F1B1FBF3F64C
:1009D00003FB161101EB02118279304C304F21706C
:1009E00002F03F02B2FBF3F103FB112202EB011212
:1009F000627042799208B2FBF3F103FB112202EB21
:100A00000112A2708288C2F34412B2FBF3F103FB1D
:100A1000112202EB0112E2700279C2F3820222710A
:100A20000279C17802F00302D20042EA5112B2FB0D
:100A3000F3F103FB112202EB01126271C278C2F3DF
:100A40004302B2FBF3F103FB112202EB0112A2718C
:100A50000268C2F31802B2FBF5F105FB1122B2FBEA
:100A6000F3F103FB112202EB011285B0E2710125C3
:100A70000026635D8DF80D300096022303AA6821DD
:100A800038468DF80C50FFF7B9FA20B90135082D1A
:100A9000EFD105B0F0BD4FF0FF30FAE70C3E00207B
:100AA000FC6802002DE9F84381464820089D8846ED
:100AB00017461E4600F0F8F80446A0B1C0E90498B5
:100AC000C0E9027695B100F118060FCD0FC695E882
:100AD0000F0086E80F00DDE90A23C4E900230023A4
:100AE000C4E90F33A3632046BDE8F8834FF0FF321B
:100AF0004FF0FF33C0E90A23EDE708B100F014B965
:100B00007047F8B5044638200F4600F0CDF805468A
:100B100078B10023036074B100F108060FCC0FC652
:100B200094E80F0086E80F000023C5E90B33AF629D
:100B30006B632846F8BD4FF0FF324FF0FF33C0E93A
:100B40000623F1E7036B70B513B9C162016312E0CC
:100B5000D1E90C24D3E90C65964275EB040C0FD255
:100B6000DA6BC1E90F23CAB9D9630B6C03B9C1624F
:100B7000CB6B002BEAD0036801330360012070BD0A
:100B8000AC4208BFB24203D1CE69DD69AE42E7DABA
:100B9000C56A9D4204D1CB631964E6E71164E3E7BB
:100BA0001B6C002BD6D1E0E7C26A4AB1D36BC3629B
:100BB00043B903630368013B002BD8BF00230360E4
:100BC0001046704700211964F4E710B5C06A00B9F7
:100BD00010BDD0E90441994208BF9442F8D0C06BDF
:100BE000F5E730B5C16A002001B930BDD1E9045440
:100BF0009C4208BF9542C96B08BF0130F4E7C06A48
:100C00007047C36A8B420ED1DB6BC36243B9036387
:100C10000368013B002BD8BF00230360012070470D
:100C200000221A64F4E733B1D1E90F32D363002B09
:100C3000F7D10263ECE718467047002070470020A8
:100C4000704700001048114B10B500220360104B94
:100C5000426083601A7083689BB1836800F120034F
:100C60000362046AC36000F50061091B416209491F
:100C70008162C2620263026A416A0A444263836813
:100C800010BD1846FCE700BF1C3E002001100110FB
:100C9000204600201001100108B5FFF7D3FF014BDB
:100CA000186008BD1C4600201C4B1A681C4B1168BC
:100CB0009942F0B530D19168D16800F11703086806
:100CC0000C68496823F0070308300C4403F1100650
:100CD000A04201D3002014E04568DDB9C168C768AF
:100CE000091A8E420FDA19180E4C1C504D6088609C
:100CF000C568CD60C16004604360536801335360D0
:100D000010309368F0BD8B4204D1796811B1054968
:100D10000160F1E7C068DBE70020F3E71C46002034
:100D2000011001101001100170B590B1204B1A682C
:100D3000936811681F4B99420AD150F80C1CA0F11E
:100D40001004234621B150F8105C1B498D4201D09C
:100D5000936870BD516801395160002140F8101C42
:100D60006160D168086849680844996809B9002534
:100D700014E059680029FAD19B68F6E75968A1B9CF
:100D8000D9688142E4D04E685EB9CE68DE60DE6824
:100D900086423CBFCE68B3604D600D608342EDD3A8
:100DA000D6E7CB689C42F9D2D2E7DB68F6E700BF12
:100DB0001C46002001100110100110010A440138E6
:100DC000914200D3704711F8013B00F8013FF7E76B
:100DD0000244904200D3704700F8011BF9E700007D
:100DE000084A002370B5184615460C260A2406FB4F
:100DF00003510133072B886002F10C02C860546074
:100E0000F5D170BD30260020F8B51B4C23682DEDC0
:100E1000028B73B319480321FEF75EFDD4F8843DBD
:100E2000984204F559650AD255E90223D4F8981D71
:100E3000D4F89CCD56184CEB030745E90267C4F87B
:100E4000840D55E90223801843F1000104F00EFCE3
:100E500008EE100AD5E9000104F008FC07EE900A3C
:100E6000C8EE277A17EE900A04F08AFBBDEC028BDD
:100E7000F8BD00200146F9E730260020086902008D
:100E80002DE9F34D164C01922368DDE90AAB80464B
:100E90000D460BB313480321FEF71EFDD4F8843D25
:100EA000019A98420DD204F5596353E90267D4F8C8
:100EB00098CDD4F89CED16EB0C004EEB070143E9FE
:100EC0000201D4F8A43D3BB140462946CDE90AAB26
:100ED00002B0BDE8F04D184702B0BDE8F08D00BF8C
:100EE0003026002008690200F8B51B4C236883B344
:100EF00003211A48FEF7F0FCD4F8843D834204F540
:100F000059610AD951E90223D4F8985DD4F89CCDEF
:100F100056194CEB030741E90267C4F8840D51E907
:100F200002230F498018D1F8104543F1000104F065
:100F30009DFBE4B21023E34007EE903A07EE100A5F
:100F4000F8EE677AC7EE277A17EE900A04F018FBDE
:100F5000F8BD00200146FBE73026002008690200AA
:100F600000B001400346D0B50846E3B10F4BD3F8BB
:100F700010254FF47A53D2B2D34000210C4C0026F6
:100F8000C4F8903D04F5596200230027C4F8941D6D
:100F900042E90267C4F8843D00F056FA04F55A6449
:100FA00044E90201D0BD1946E8E700BF00B00140A6
:100FB00030260020F0B5124C0C2707FB0047FE68D6
:100FC000BB68B34219D04FF4F0735843302303FB8E
:100FD0000600044460340D460FCC0FC50FCC0FC57E
:100FE00094E80F0085E80F003B690136B6FBF3F289
:100FF00003FB1266FE600020F0BD6FF00400FBE70B
:1010000030260020064810B500230C2404FB030200
:1010100001339168D160072BF8D1002010BD00BFCB
:10102000302600202DE9F047B0F5A07F8CB040F0CD
:10103000AE80684DD5F8800DFFF7E1FD044600282D
:1010400000F0AB80D5F8A03D9847D4E90C230130DF
:1010500041F10001904271EB0303C0F09E80D4E99E
:1010600002321A4307D0D4E90001CDE90001D4E9E6
:101070000401A2699847D5F8800DFFF795FDD0E9E6
:101080000A325C1E1443014600F08480023B134385
:10109000D0D1D0E90C32D0E908041B1842EB04028D
:1010A000C1E90C32D5F8800DFFF74CFDC2E7A388EB
:1010B000022B2ED0032B5FD0012B1FD1A3680493EA
:1010C000D4E90623CDE9062323780590CDE908303D
:1010D000D4E90823CDE90A23D4E90A23CDE9022380
:1010E00004AB0093E2680346D4E90401FFF7DAFC9D
:1010F000014618B1D5F8800DFFF724FD3649384672
:10110000FFF758FF0028D2D00137072F91D0324C7B
:10111000F4E7D4E90423D5F8800DFFF762FDD4E9A4
:10112000088906465EB9E368002BE7D0D4E90A01D6
:10113000CDE90001D4E90401A2689847DEE7D4E9CB
:101140000423D5F8800DFFF740FD824690B158EAA0
:10115000090307D0D4E90812436B006B814272EB9C
:10116000030307D3D5F8800D5146FFF74AFD5046DB
:10117000FFF7C3FC013ED5E7FFF744FFD5F8800D2C
:10118000FFF712FD0028CED0FFF7B7FCF6E7114DB0
:101190000027BCE7FFF7B1FC4CE7D5F8800DFFF75F
:1011A0002EFD98B1D5F8A03DD0E90C469847421CD9
:1011B00041F10001A24271EB06034FF00103074821
:1011C000009338BF2246002100F07BF90CB0BDE847
:1011D000F08700BF30260020284600200869020062
:1011E000F0B5124C0C2606FB0046B36832695F1C52
:1011F000B7FBF2F502FB1577F268BA4213D04FF451
:10120000F0725043302202FB03000D4604440FCD20
:1012100060340FC40FCD0FC495E80F00B76084E8A9
:101220000F000020F0BD6FF00300FBE73026002028
:101230002DE9F0418EB01C46189B0493199BADF824
:101240000A200593DDE91423CDE906230023099341
:1012500000220023CDE90A23DDE91623DFF86C80A4
:1012600008940126051ECDE90C238DF80810D8F846
:10127000A03DADF80C600CBF3746022798472418F4
:1012800041F10001CDE90A41284602A9FFF7A8FF74
:10129000072D15DC041E18BF012488B90A483946F9
:1012A00000F003F9D8F8A03D98470096821933461C
:1012B0000548394600F005F920460EB0BDE8F0813A
:1012C0004FF0FF30F9E700BF086902003026002028
:1012D0002DE9F04190B004460E4617460021182231
:1012E00008A8DDF860802C4D04F042FB26A3D3E96A
:1012F00000232A48CDE90E23FFF79FFCFFF770FD7E
:10130000002108A8FFF7FDFB254BC5F8800D002C38
:1013100008BF1C4606A8C5F8A04D00F08DF8214B6B
:1013200021480795012206A900F0A2F806A901208C
:10133000FFF718FE1C4800F0ADF801232B60C5F83C
:10134000A46D4EF6602316B1BB4228BF3B46DDE9D3
:101350001601CDE902010EA1D1E90001134ACDE940
:101360000001CDE90482022103220520FFF760FF7E
:101370000A4B002418461C70FFF761FC204610B091
:10138000BDE8F081AFF30080534348440000000003
:101390004E004441454D00003026002058460020B4
:1013A000090E02002510020008690200810E0200E9
:1013B00070B58EB00421CDE90623ADF80A100022E5
:1013C00000230221CDE90823CDE90A23ADF80C1052
:1013D000DDE912231499049115990591041E4FF02B
:1013E000010502A90CBF2E460226CDE90C238DF87B
:1013F0000850FFF7F5FE072C15DC041E18BF01246A
:1014000088B90A48314600F050F8094BD3F8A03D9E
:101410009847009542192B460448314600F051F890
:1014200020460EB070BD4FF0FF30FAE708690200A9
:101430003026002070470000024A0023C0E9002344
:10144000704700BF0400030550B18378013BDBB255
:10145000022B08D8054A02EBC303D3E90001704709
:101460000020002170474FF48030FAE71069020035
:1014700008B51AB1064A002B08BF13461A46FEF7F4
:101480006BF918B1BDE80840FBF70CBC08BD00BF04
:101490003514020010B50446FEF70EFA20B92046B6
:1014A000BDE81040FEF7C0B910BD8900036801F522
:1014B000A07100225A5082B05B580193019B02B088
:1014C0007047F0B41D4604689DF81030A5B1D4F8FB
:1014D00010554FF47A54EDB2A2FB0424C5F1200755
:1014E000A5F12006EA4004FA07F73A4324FA06F683
:1014F0003243F0BCFEF7FBB9D4F81045E4B2170F45
:10150000C4F120061201A4F12005E24007FA06F614
:10151000324327FA05F52A43EBE70000074BD3E9EE
:101520000001074BC3E90001064900220023C1E97D
:1015300000230549C1E90023704700BF2869020064
:10154000D83300206046002068460020022998BF5A
:1015500000F1FF3030B598BF80B24FF0640598BFFE
:1015600001F10C04B0FBF5F305FB130098BFE1B2E9
:10157000C0F38D059CB2431D15FA83F304EB840080
:10158000034403EB94031A2401FB04440A20B4FB34
:10159000F0F4A01818440723B0FBF3F3C3EBC30324
:1015A000C01A0130C0B230BD2DE9F84F14462DED00
:1015B000028B4FF47A72002308EE101A074604F0EB
:1015C00081F83C2200238146884604F07BF83C22C7
:1015D00000238A46834604F075F83C2206460D46F1
:1015E00000235146584604F06DF830464FEA822AEF
:1015F00029461822002304F065F800234AEA421A1B
:1016000048463C22414604F05DF818EE101A4AEABA
:10161000024A38464FF47A72002304F053F86368A4
:101620004AEA825203F01F031A4362600023182221
:101630003046294604F046F846F2A4331E1841F11C
:101640000001890041EA96712B4A05460023B0004B
:1016500004F038F805F515150F3005F2813505440D
:10166000A5EB900514226A43A2F68A1247F22423BE
:1016700041F68947B2FBF7F7B2FBF3F240F26D1384
:10168000AD1A03FB17554FF47A701E2200FB05F1CB
:1016900047F28973B1FBF3F302FB135540F2592271
:1016A0005A43B2FBF0F2AD1A144AA7F59357914290
:1016B00099BF0C3F03F1FF360B3FA3F10D06EAB2D1
:1016C000B8B2F1B2FFF742FF730603F0F05327F010
:1016D0007E473B4343EA4573BDEC028B23608000A9
:1016E000237900F01C00C5F3C105054323F01F0357
:1016F0001D432571BDE8F88FB13A02007D890600CF
:1017000070B5C67802680179C6F34305C2F31802C2
:10171000022D01F0030198BF02F1FF324FEAC1012F
:1017200041EA56164FEA920340F26D1198BF0C350C
:1017300001FB02334FF4C871B2FBF1F10B44642199
:10174000B2FBF1F2691C9B1A01EB41010522B1FBCE
:10175000F2F21E2101FB05652A449B18154A164921
:101760004FF0000464419B184279A3FB015364F1DC
:10177000000401FB043392088188C2EB0212C1F31A
:10178000441491004FF4616202FB04118279C08815
:1017900002F03F0211444A194FF47A7443EBE173AB
:1017A000C0F38910A2FB042104FB0311801841F14E
:1017B000000170BD3705F5FF8051010010B50446EA
:1017C000FFF7ACFED4E900230648C0E90023FFF789
:1017D00097FF054BC3E90001FFF716FB034BC3E975
:1017E000000110BDD833002060460020684600206C
:1017F00073B504460B4EFFF707FB0B4AD2E90035E1
:10180000D6E900269B1A65EB060518186A4645EBD3
:101810000101FFF7C9FEDDE900232046C4E90023EA
:1018200002B070BD684600206046002010B5FCF78D
:101830009FFE044640B9FCF755FE034610B1FBF786
:1018400031FA2346184610BD4FF0FF33FAE7000087
:1018500030B585B004460391FFF7D6FA084B53F82C
:101860002430196849B11D693DB1D3E90601039AD5
:10187000CDE9000120460021A84705B030BD00BFDA
:101880007046002001460320FFF7E2BF0146022018
:10189000FFF7DEBF01460120FFF7DABF0146002057
:1018A000FFF7D6BF03282DE9F04705468A46914643
:1018B0001F4603D94FF0FF30BDE8F087DFF8F8800E
:1018C00058F82040002CF5D15820FFF7EDF948F8E2
:1018D000250006460028EDD003469AE8030043F8A9
:1018E000204B83E80300D9F80000D9F8041006F172
:1018F000280303C3D9F808001860089B7463022BFF
:1019000038BF0223746473603E4658F825305B6824
:101910009C421FD3099B58F82500012B38BF012397
:1019200083600A9BC3600B9B0361DDE90C23C0E964
:101930000623204B00F1280153F825202030FDF725
:10194000FDFA08B1FBF7AEF958F8253002221A600B
:101950000020B1E7B0884000FFF7A6F9103607462F
:1019600020B336F80C2C56F8101C5200FFF726FA5C
:1019700058F8253003EB041301345F6336F80C2C60
:101980001A8756F8082CDA6356F8042C1A64BCE758
:1019900058F82520E11C02EB01120E01506828B115
:1019A000FFF7C2F958F8253033445F60013CEFD2AD
:1019B000B0E700BF30690200704600200000000060
:1019C0002DE9F043032887B005461646994639D8D5
:1019D000DFF8888058F82040A4B32368022B01D098
:1019E000072B2FD167682289E368012F04F12000BB
:1019F00004F134011FD1FDF777FB08B1FBF752F971
:101A000058F8253003221A6056EA090211D0124A0A
:101A1000059200246722CDE9023404920CA3D3E995
:101A200000230121CDE90023042033460222FFF7E1
:101A3000FFFB002008E00093134604F14402FDF789
:101A400091FBDAE74FF0FF3007B0BDE8F08300BF4D
:101A5000010050574D300000091B02007046002065
:101A6000032838B5044614D80B4D55F8200080B132
:101A70000368032B04D0D81F18BF4FF0FF3038BDC8
:101A80002030FDF7B7FB55F8243007221A600020FC
:101A9000F5E74FF0FF30F2E770460020032870B5FD
:101AA00004462CD8174E56F8205035B30121FFF7C5
:101AB000D7FF56F824002030FDF7F4FA56F824300A
:101AC000586B30B1FFF730F956F8243000225A63D2
