:020000021000EC
:10C000000000022075C301005DC301005FC3010091
:10C0100061C3010063C3010065C3010000000000AB
:10C0200000000000000000000000000067C30100E5
:10C0300069C30100000000006BC301006DC3010073
:10C0400079E801006FC3010015ED01006FC3010025
:10C050006FC301006FC3010099EB01006FC30100C2
:10C060006FC301006FC301006FC301006FC3010004
:10C070006FC301006FC301006FC301006FC30100F4
:10C080006FC30100A5D901006FC301006FC3010098
:10C090006FC301006FC30100D92102006FC301000B
:10C0A0006FC301006FC301006FC301006FC30100C4
:10C0B0006FC301006FC3010000000000000000001A
:10C0C0006FC301006FC301006FC301006FC30100A4
:10C0D0006FC301006FC301006FC301006FC3010094
:10C0E0006FC301000000000000000000000000001D
:10C0F000000000006FC30100000000006FC30100DA
:10C10000000000000000000000000000000000002F
:10C11000000000000000000000000000000000001F
:10C12000000000000000000000000000000000000F
:10C1300000000000000000000000000000000000FF
:10C1400000000000000000000000000000000000EF
:10C1500000000000000000000000000000000000DF
:10C1600000000000000000000000000000000000CF
:10C1700000000000000000000000000000000000BF
:10C1800000000000000000000000000000000000AF
:10C19000000000000000000000000000000000009F
:10C1A000000000000000000000000000000000008F
:10C1B000000000000000000000000000000000007F
:10C1C000000000000000000000000000000000006F
:10C1D000000000000000000000000000000000005F
:10C1E000000000000000000000000000000000004F
:10C1F000000000000000000000000000000000003F
:10C20000354936480A1A02D0072291438D463449EF
:10C2100034480A1A06D00722914381F30988022282
:10C2200082F3148830483149314A00F044F83148EB
:10C230003149324A00F03FF831483249324A00F081
:10C240003AF832483249334A00F035F83248334937
:10C25000334A00F030F833483349344A00F02BF8C1
:10C2600033483449344A00F026F83448344900222F
:10C2700000F02CF833483449002200F027F8334806
:10C280003349091A082902DB002202604160314A61
:10C2900090471F481F49884205D00268043003B404
:10C2A000904703BCF7E700208646EC4600200021BB
:10C2B000294A9047FEE7884207D0521A05D00378F2
:10C2C00001300B700131013AF9D17047884202D038
:10C2D00002700130FAE770470000022000F80120E8
:10C2E0000000022000000220044102000826002075
:10C2F000F4260020D0C30100D0C30100B42E0200F8
:10C30000044102000826002008260020B02F020069
:10C31000B02F0200B02F0200B02F0200B02F020099
:10C32000B02F0200B02F0200B02F02000441020023
:10C33000F0410200F4260020F4260020F42600201C
:10C340008036002080360020803600208036002095
:10C35000803E00209DC3010009FD0100FEE7FEE7CD
:10C36000FEE7FEE7FEE7FEE7FEE7FEE7FEE7FEE7A5
:10C3700000F002B8FFF7FCBF0F484FF007018843F9
:10C3800085460E4880470E48016841F470010160FF
:10C39000BFF34F8FBFF36F8FFFF732BF09480A49D2
:10C3A0000A4A884207D0521A05D0037801300B7030
:10C3B0000131013AF9D1704700000220D9E20100B1
:10C3C00088ED00E0B02F020008260020082600209B
:10C3D0007047000007B5044B0093044A402300F067
:10C3E00032F803B05DF804FBF1C30100F52600202C
:10C3F0002DE9F84388461446B2B10F4B0F4E032582
:10C40000002743F00109224608EB0701002003F052
:10C4100055FE0744241A48B933782BB14FF47A40BB
:10C42000C847013D02D13570BDE8F8830123337060
:10C43000002CE8D1F8E700BFB02F0200F42600205E
:10C44000704703F06BBEF0B595B01D461646084622
:10C450000C4601F055FE1A9B0D93CDE908650025A9
:10C460002B46082205A920460A958DF82C500C95DC
:10C4700001F062FE079B0293069B03939DF8143024
:10C480008DF8115003F00302012A1DD1BDF81420CC
:10C49000059DC3F3C203C2F383168DF81030B200BA
:10C4A00008230EA9204601F047FEC5F3952508ABE9
:10C4B0000093324602AB0EA9284600F04DFB204601
:10C4C00001F022FE15B0F0BD022AF8D1BDF81650D9
:10C4D000C3F3C203C5F389158DF810300827082D62
:10C4E0002E4628BF08263B4632460EA9204601F0BC
:10C4F00023FEAD1B08AB02AA31460EA8374400F05C
:10C500008FFB002DEBD1DAE708B5FFF79AFF04485F
:10C51000042100F08BFA034B01225A7108BD00BFC1
:10C52000A02F020008260020037813F0040216D082
:10C5300003F00303012B03D0022B09D00120704725
:10C540000A6800880232C0F3831002440A60F5E7EB
:10C550000B684288023303EB92130B60EEE7104640
:10C56000704700002DE9F04FDFF81CA187B00F469F
:10C5700000230446861C0DF1070015468DF8073090
:10C5800001F0A2F8DAF804203A60DAF8083003F58E
:10C5900080739B1A0AF21C470AF583690AF2144851
:10C5A000B3421AD30020002D69D004F00F039B0181
:10C5B00043F0050363F30F00DAF80430DAB2033214
:10C5C00033444AF822009DF80700CAF8043001F00D
:10C5D0009FF8012007B0BDE8F08F0121384601F037
:10C5E000BEFA484601F0D3FA404601F0D0FADAF834
:10C5F00008000290C0B203300AEB800002A9FFF7E6
:10C6000093FF029B30BBDAB20AEB8202D16803913E
:10C610009A1C0133DBB20AEB83030292D3F80CB00D
:10C6200001F00303012B22D0022B15D08346404694
:10C6300001F0B0FA10B1029BCAF8083059463846EA
:10C6400001F08DFADAF80830DAF8042003F5807387
:10C650009B1AA5E7D8B2CEE7BDF80E30C3F3891315
:10C6600003334FEA1B4B02EB93030293DFE7BDF862
:10C670000C30C3F383134FEA1B4B1344F5E7A405B7
:10C6800044F0060098E700BF08280020064B074842
:10C6900010B500221A7001F0ECFC044610B90448F1
:10C6A00001F094FD204610BD08280020142F020040
:10C6B000EC2F020030B50A4C71B10A4A0A49121B2C
:10C6C000D20800239A4201D1002030BD31F8235016
:10C6D000854202D00133F5E7034654F83300F4E70E
:10C6E000282F0200A02F020008260020094B013944
:10C6F00003EBC000032909D8DFE801F00A020406B1
:10C7000004207047007970474079704700207047D7
:10C7100002207047282F020070470000034BD3E926
:10C720000130C31A58425841704700BF0828002002
:10C730002DE9F04186B0FFF7F1FF0546002840F0F3
:10C74000ED80774CC4F81804BFF34F8FA3680293B1
:10C75000DBB2033304EB830002A9FFF7E5FE029B83
:10C7600018B1D4F81824002A5AD0DAB2991C01332F
:10C7700004EB8202DBB204EB8303D268DB68049330
:10C7800002F00303022B0392029154D1BDF80E3044
:10C790006448C3F38917502F3E4628BF502606F140
:10C7A000080166F38F13C1F30901ADF80E3001F0F3
:10C7B00078FC0546002800F09C8001F0A1FC0023D5
:10C7C000082203A9284601F0ADFC0299CB43DBB255
:10C7D0000133C9B20331B6EB830F4FEA830204EB96
:10C7E000810125D95FFA82F80823A6EB08062846BE
:10C7F00001F098FCF6B208F108034B4903F0FC0382
:10C800003246284601F08EFC029B033703EB970764
:10C810000297D4F81834002B43D1D4F8106453E0B5
:10C8200062689A4294D8A260284606B0BDE8F081BA
:10C8300008233246E5E7012B5BD1BDF80C303948BF
:10C84000C3F38311062928BF062161F3891302313E
:10C8500001F00F018900ADF80C3001F022FC054613
:10C86000002846D001F04CFC0023082203A92846EA
:10C8700001F058FC0026BDF80C20C2F38312B3006F
:10C88000964203F10803C4D202994A1CC9B203318B
:10C89000029204EB81010422284601F043FC013698
:10C8A000E9E7284601F030FCFFF738FF80F001008F
:10C8B000C5B2B9E7F3685B7923B1336829461B68D1
:10C8C00030469847F3681E68002EF3D1284601F0E1
:10C8D0001BFC0DF107008DF8076000F0F5FED4F8A1
:10C8E00018340BB9029BA3609DF8070000F010FFFD
:10C8F000DAE7D4F8104454B90C4B0D480D49C01A6E
:10C90000C008000440F0020000F05EF8CCE72368A5
:10C9100020469B689847E3681C68ECE7002583E79E
:10C9200008280020142F020014280020282F0200BD
:10C93000502F0200D42F02002DE9F34704460E4683
:10C94000924601A9012218469946FFF70BFE1C4F9B
:10C9500010B3019D4FF00008AA1CC84508EB020166
:10C9600025D11848002101F0CBF880F31000000415
:10C9700040EA1440E4006B1C04F03804DBB2EDB272
:10C9800044F0010407EB8303033544EA881444EAC6
:10C990008624D86047F825403B781BB1FFF7C8FED6
:10C9A0000028FBD1FFF7B8FE02B0BDE8F087C9B29E
:10C9B00007EB81015AF82830CB6008F10108CCE779
:10C9C00008280020242C002000231A46FFF7B4BFBB
:10C9D00007B50123019201AAFFF7AEFF03B05DF88E
:10C9E00004FB07B5CDE9002302236A46FFF7A4FF45
:10C9F00003B05DF804FB1FB5CDE90123069B03934B
:10CA000001AA0323FFF798FF05B05DF804FB1FB5EB
:10CA1000CDE90023069B0293079B03936A460423F8
:10CA2000FFF78AFF05B05DF804FB000030B50F4C3E
:10CA3000D4F8102403460020114631B9D968087192
:10CA40004AB9C4F810340A6030BDC9680D7985420E
:10CA500006D00968F1E7D26814680C601360F3E748
:10CA600001300A28E8D14FF0FF30EDE70828002018
:10CA700038B5084B0125D3F810441D7004B938BDF2
:10CA8000E3685D71236820465B689847E3681C682B
:10CA9000F4E700BF0828002030B5C38885B00446FD
:10CAA0000D4633B1144A00921449154A284601F044
:10CAB000D4F8217A05291DD0637A4BB1A088FFF7FD
:10CAC00015FE104B104953F82020284601F0C5F8F8
:10CAD000227A0E4BA08853F8222003920021FFF700
:10CAE000E9FD039A0A490346284605B0BDE83040EF
:10CAF00001F0B3B805B030BD1830020000300200BC
:10CB0000F82F0200843002005E370200A8300200D5
:10CB10001D30020007B503460846197A052911D0D1
:10CB20005B7A2BB1094A0A49019001F096F8019805
:10CB30000849019001F091F8019803B05DF804EB09
:10CB400001F080B8002AF8D0F2E700BF18300200E8
:10CB50005E370200343802002DE9F04385B01F46ED
:10CB60000C9D002395F80C902B7306460C469046BE
:10CB700029463846FFF790FFB8F1060F09D8DFE8DD
:10CB800008F00412181F283340003146284601F0EF
:10CB900064F8002229463846FFF7BCFF85F80C9060
:10CBA00005B0BDE8F08322683146284601F055F80B
:10CBB000EFE7D4E900233146284601F04EF8E8E7D4
:10CBC000A36800933146D4E90023284601F045F8D4
:10CBD000DFE7E3680193A36800933146D4E90023BB
:10CBE000284601F03AF8D4E723690293E3680193F9
:10CBF000A36800933146D4E90023284601F02DF8BC
:10CC0000C7E76369039323690293E3680193A36809
:10CC100000933146D4E90023284601F01EF8B8E716
:10CC200008292DE9F74F80460E4617461C463CD88A
:10CC3000002593F80C901D7319461046FFF72CFF42
:10CC4000DFF888A0DFF888B0AE4231D918F80520A7
:10CC50005946204601F001F80135082DF4D1194953
:10CC6000194DDFF870A0204600F0F7FF4FF0000BE1
:10CC70005E4522D918F80B207E2A05D8104601926D
:10CC800005F014FD019A00B92E225146204600F00D
:10CC9000E4FF0BF1010BBBF1080FE9D101222146A2
:10CCA0003846FFF737FF84F80C9003B0BDE8F08FEB
:10CCB0005146204600F0D1FFCEE72946204600F03D
:10CCC000CCFFE6E7313002002F3002002D300200A9
:10CCD0002730020033300200C30710B507D4F02319
:10CCE000054A4008145C23401943115410BD090142
:10CCF000C9B20F23F4E700BFD02C002030B5094B98
:10CD00001C78094B196800239C4202DC0022104663
:10CD100030BD11F83350854201EBC302F7D0013327
:10CD2000F2E700BFC02C0020F02C002013B5044611
:10CD30000191FFF7E3FF38B143682BB10199204619
:10CD400002B0BDE81040184702B010BD034B0448C4
:10CD500019680022490800F087BA00BFC42C0020DF
:10CD60001026002010B5C0B2FFF7C8FF04460078B7
:10CD700001F004FF63785A1E53425341834208D1A5
:10CD8000044BD3E90023134303D1BDE81040FFF760
:10CD9000DDBF10BDC82C002037B54308374AD35C2F
:10CDA000C2074CBF1B0903F00F0304460D46042BBA
:10CDB00025D8DFE803F003262F3C4000F9B101211C
:10CDC000FFF78AFF00230DF107008DF8073000F010
:10CDD0007BFC0120A4F12003C4F12001284A20FAA1
:10CDE00001F100FA03F30B43A040D2E900412043D4
:10CDF0000B43C2E900039DF8070000F089FC03B073
:10CE000030BD002918BF0221204603B0BDE83040E4
:10CE1000FFF762BF49B10321FFF75EFF0121204602
:10CE200003B0BDE83040FFF781BF0121ECE70029E6
:10CE3000E5D10421E8E709B10321E5E7FFF74CFF5D
:10CE400029462046FFF772FF0DF107008DF80750C5
:10CE500000F03AFC0120A4F12003C4F12001084AAB
:10CE600020FA01F100FA03F30B43A040D2E900419C
:10CE700024EA000021EA0303BBE700BFD02C002016
:10CE8000C82C00202DE9F041124E134F00243378B6
:10CE9000A34208DC114BD3E90023134318D0BDE8AB
:10CEA000F041FFF753BF3D6805EBC40815F83400A7
:10CEB00001F064FE98F801305A1E53425341181A8B
:10CEC0004142414115F83400FFF766FF0134DEE7C7
:10CED000BDE8F081C02C0020F02C0020C82C0020E0
:10CEE000092AF7B505460C4616463ED901F06EFDF7
:10CEF000E8B11F4B1F481D601F4B204F1C70204B7B
:10CF0000002120221E6005F031FC1E4B0020002174
:10CF1000C3E90001013CE4B20326FF2C0DD11A4AFB
:10CF20001A48002103B0BDE8F04000F08BB901F0D1
:10CF300007FD0028DDD003B0F0BD9DF8063015F8E0
:10CF400034008DF8046005EBC40223F007038DF86C
:10CF5000063001A993788DF805303A4601F040FD7E
:10CF6000013CE4B20028D8D0E5E70720E3E700BFA2
:10CF7000F02C0020D02C0020C02C002065CD01001A
:10CF8000C42C0020C82C002085CE0100C83002002F
:10CF900070B5084D084E00242B789C4201D3002028
:10CFA00070BD3368012113F8340001F099FD01349C
:10CFB000F2E700BFC02C0020F02C00201FB500219C
:10CFC000039001AA44F20100CDE9011100F004F838
:10CFD00005B05DF804FB000038B572B6FFF748FDF8
:10CFE000FFF7A6FB0028FBD1104B114C114D124945
:10CFF000E41AE408240444F00100FFF7E5FCD5F846
:10D00000F030DB0700D500BE0C4944F00200FFF70A
:10D01000DBFCBFF34F8FEA68094B02F4E062134375
:10D02000EB60BFF34F8F00BFFDE700BF282F02006A
:10D03000502F020000ED00E0CC300200D83002009A
:10D040000400FA0549B152B1531E1A4007D182605B
:10D0500001608380C260104670470E20704709202F
:10D06000704710B58468C2688388121B934208D346
:10D07000C26813400268D154C3680133C360002002
:10D0800010BD0420FCE78268C3689A420AD0826817
:10D09000838813400268D35C0B708368013383601C
:10D0A000002070470520704710B5D0E90243D1E950
:10D0B0000202A04272EB03032CBF0120002010BD2E
:10D0C00008B50A4800F057FC094AD2E90031C018F7
:10D0D000084BD3E9002341F10001904271EB0303B7
:10D0E00003D210F1807041F1000108BD302600200C
:10D0F000F82C0020702D002037B505460C460A4854
:10D1000001A900F06CFC60B10570446001A90648FB
:10D1100000F08FFC18B1054800F032FC002003B08D
:10D1200030BD0420FBE700BF5C2D0020302600202E
:10D13000294B73B51E7804461EB90026304602B04E
:10D1400070BD0028F9D0FFF7BBFFD4E9022390425D
:10D15000994139D300230DF107008DF8073000F015
:10D16000B3FA23692BB94FF0FF324FF0FF33C4E914
:10D1700002239DF8070000F0CBFAD4E90530984768
:10D1800000250DF107008DF8075000F09DFA236986
:10D19000C3B1D4E90212B2F1FF3F08BFB1F1FF3FC2
:10D1A00005D05B1842F10002C4E9023235469DF811
:10D1B000070000F0ADFA002DBFD00848214601F06D
:10D1C00024F8BBE71D46F2E7B3F1FF3F08BFB2F119
:10D1D000FF3FB2D0F1E700BF002D0020F430020085
:10D1E00013B5114B114918680190082310485822B3
:10D1F00000F0E2FB044698B90E4A0F4801A900F07E
:10D20000ABFA044660B90C48012100F097FB0123FA
:10D210000A4A0948194600F0F9FA094B01221A7026
:10D22000204602B010BD00BFF0300200042D0020E7
:10D230005C2D002021D3010030260020FFFF7F005D
:10D24000002D002030B56AB103684FF0FF344FF075
:10D25000FF355A614A1E5142C3E9024551411961E5
:10D26000002030BD0720FCE7F7B5044600250DF18E
:10D27000070017460E468DF8075000F025FAD4E94E
:10D280000223B3F1FF3F08BFB2F1FF3F07D1FFF721
:10D2900017FF301841F10001C4E9020101259DF892
:10D2A000070000F035FA55B12369A76103B1266183
:10D2B0002146002003B0BDE8F040FFF71DBF28461F
:10D2C00003B0F0BD37B5054600240DF107008DF819
:10D2D000074000F0F9F9D5E90223B3F1FF3F08BF99
:10D2E000B2F1FF3F1FBF4FF0FF324FF0FF33C5E9F0
:10D2F000022301249DF8070000F00AFA34B1294600
:10D30000012003B0BDE83040FFF7F6BE204603B071
:10D3100030BD0000014800F02EBB00BF30260020C9
:10D320002DE9F743064600F011FB40B1624AD2E90D
:10D33000003113F1807341F10001C2E90031002195
:10D34000304600F012FB38B15C4C236823B12068F2
:10D35000FFF7EEFE002323600121304600F005FBBD
:10D3600020B1FFF7ADFE564BC3E900015548534CC1
:10D3700001A900F06EFB4FF0FF384FF0FF39A0B964
:10D38000DFF844814D4D404600F055FF002800F085
:10D390008580D0E90223B3F1FF3F08BFB2F1FF3F20
:10D3A00032D1404600F041FFEDE70378012B20D059
:10D3B000022B08D1444D284600F037FF002877D0D3
:10D3C000C0E90289F7E75BB94168D1E90223B3F10B
:10D3D000FF3F08BFB2F1FF3F02D03B4800F015FF0E
:10D3E00001A9384800F060FB01A9364800F031FB84
:10D3F000C5E741682368994202D100232360EFE723
:10D40000314800F01BFFEBE7296891B12968D1E9A9
:10D41000020182428B412FD22B68D3E90223B3F160
:10D42000FF3F08BFB2F1FF3F03D02968404600F03C
:10D43000ECFE404600F0F9FED0E902490746FFF74E
:10D440003FFE201A69EB0109012879F1000318DB7E
:10D45000B0F5350F13D3FFF75DFF1C4A02441C489B
:10D460004FF49603002100F0F1F990B92B6813B93D
:10D47000304600F0C3F92F6003B0BDE8F0832246C8
:10D48000EDE71348002100F066FA3846FFF750FE3A
:10D4900001E00D28F9D000232B6074E7074B1B68CF
:10D4A000002BE9D1304603B0BDE8F04300F0AAB943
:10D4B000084B01221A7093E7F82C0020782D0020E9
:10D4C000702D00205C2D0020F4300200FFFFB4001E
:10D4D00030260020002D00200648074A037807491F
:10D4E000D35C012213B1043002F0AAB80C3001F071
:10D4F00053BE00BF38260020F42D0020A42D0020AC
:10D500000648074A03780749D35C012213B1043067
:10D5100002F048B80C3001F0EFBD00BF3826002003
:10D52000F42D0020A52D002037B50578012D0DD054
:10D53000022D30D075B91F491F48FFF7A4FD002800
:10D5400034D103B0BDE83040FFF7DABF037A1BB92E
:10D55000FFF7C2FF03B030BD4368184C197820466E
:10D56000FFF77FFD80B18DF800500190144B6846A5
:10D570001B689847A168E368A2885B1A9A42E7D2C1
:10D58000104B01221A70E5E7A268E3689A42F1D0D5
:10D590008DF80000EAE7C3688DF800500193FFF7AB
:10D5A0009BFF074B68461B689847D3E703238DF81A
:10D5B0000030F6E7A52D0020942D0020802D0020BE
:10D5C0007C2D0020902D0020F0B51F46234B89B004
:10D5D00004461A600D4600293DD08A882048096813
:10D5E000FFF730FD002834D1AA89A9681D48FFF74C
:10D5F00029FD00282DD11C4E0FCE6D460FC596E893
:10D600000F0085E80F0063690693237C174A1848CA
:10D610008DF81C70003B18BF01238DF81430637C1B
:10D62000002B14BF0E2300238DF81530E3680293FE
:10D63000A36803932368019369466368009301F02C
:10D64000A3F830B90B4B18702368013301D0FFF7F2
:10D6500043FF09B0F0BD0720FBE700BF7C2D002091
:10D66000802D0020942D00200031020029D50100DA
:10D6700038260020902D002010B501460E48FFF7F7
:10D68000F0FC0446A8B90D480D4A0378D35C63B199
:10D69000043001F07BFF60B90A490748FFF7F3FC4B
:10D6A00038B9BDE81040FFF72BBF0C3001F018FD72
:10D6B000F1E7204610BD00BF942D00203826002041
:10D6C000F42D0020A52D002070B5EFF3108672B662
:10D6D0000C4A946801239CB993600B4B0B4DD3F813
:10D6E000801029401160C3F88050D3F88410516035
:10D6F0004FF0FF32C3F88420047006B962B670BDE3
:10D700000370FAE7A82D002000E100E0FC06FFBD51
:10D71000084B9A6810B55AB150B9EFF3108172B640
:10D72000054A1C6814605C685460986001B962B670
:10D7300010BD00BFA82D002000E100E0435882B0DA
:10D740003BB10023435043580193019B012002B099
:10D7500070471846FBE70000F8B5204B4479204E8F
:10D7600043F824201F4A204B06EBC4049B1A22795D
:10D77000DB081B0432B143F002001C49FFF724F917
:10D780000820F8BD02680C88C2F8084590F90450DA
:10D790008A7804795201002DD2B219DB14494F194D
:10D7A00087F8002301226D0904F01F0402FA04F433
:10D7B00041F82540427906EBC201012446F83200C7
:10D7C0000C7143F003000B49FFF7FEF80020D8E787
:10D7D000094904F00F040A55ECE700BFBC2D0020F6
:10D7E000B42D0020282F0200602F020020310200FB
:10D7F00000E100E04231020014ED00E00368012284
:10D800001A607047036801225A60704773B501F1CE
:10D810005005AD000068ADB24FF480348C40002656
:10D82000C0F80843C0F84843465101F5A87145596E
:10D83000019522F07F42019D40F82120C0F8444329
:10D840000BB1C0F8044302B070BD00002DE9F74FE2
:10D850000D4622F07F4402684FF4803705F15006F0
:10D860008F408046B60002EB8500C2F84873B6B21E
:10D87000C2F80873D2F8041599464FF0000BD0F89F
:10D880004035C0F8401542F806B05B1A9259009234
:10D8900023F07F43012B009A4FEA850A0CD1264BD7
:10D8A0004FF4806043F001039847D8F8003043F804
:10D8B00006B09B590193019BD8F80010D1F804657C
:10D8C000C1F84473A31B23F07F43012B1CD11A4BD7
:10D8D00005F5A875013443F0010341F825404FF4E4
:10D8E00080609847D8F80030D3F804359E4209D1BB
:10D8F000D8F800300020C3F84473C3F8047303B0B1
:10D90000BDE8F08F0D20FAE78A44C9F1FF13CAF889
:10D910004045D1F80405221A013A22F07F4203F56E
:10D920007F439342EED3002AE2D10134CAF8404546
:10D93000D1F804359842DAE7603102000368022228
:10D94000C3F8442309B1C3F80423704700684FF4B7
:10D950008271FFF7F3BE4FF4803303FA01F10368DD
:10D96000C3F84813C3F808137047503189000068A2
:10D9700089B2FFF7E3BE0368D3F8040570470000DF
:10D9800090F90430002B09DB5A09012103F01F0331
:10D9900001FA03F34032024941F82230704700BFD8
:10D9A00000E100E0024B034A1B681068184700BF03
:10D9B000BC2D0020B42D002010B561B1B2FBF3F4F2
:10D9C00003FB1424A4B244B9C0E90014846082812A
:10D9D000C381204610BD0E20FCE70920FAE737B5C9
:10D9E00050E8013F9DB2C48925448489A54228BFDF
:10D9F0002D1B0489A54202BFBFF32F8F002207E031
:10DA0000C5EA030540E80154002CE9D14FF00102BA
:10DA10008DF803200193019A0A609DF8031001F02C
:10DA2000FF0321B1006810FA82F003B030BD184640
:10DA3000FBE70A884B889A4209D150E8012FC2EAD5
:10DA4000024240E80123002BF7D10120704700205B
:10DA5000704737B550E8023F1FFAA3F5C488A542C6
:10DA600002BFBFF32F8F00220DE0C48925448489B3
:10DA7000A54228BF2D1BC3EA054540E80254002CEF
:10DA8000E8D14FF001028DF803200193019A0A605A
:10DA90009DF8031001F0FF0321B1006800EB124074
:10DAA00003B030BD1846FBE70A884B889A4209D17B
:10DAB00050E8022FC2EA224240E80223002BF7D1AD
:10DAC000012070470020704701F01F024B0901211F
:10DAD000914000EB830000F01EB801F01F0301220B
:10DAE0009A404B0900EB8300D14300F02CB84B095E
:10DAF00001F01F0150F82300C84000F001007047FA
:10DB000010B5034653E8000F0A4643E8002494F09A
:10DB1000000FF7D110BD10B5034653E8002F42EABD
:10DB2000010043E8000494F0000FF6D110BD10B5D9
:10DB3000034653E8000F00EA010243E8002494F092
:10DB4000000FF6D110BD10B5034653E8002F02EACE
:10DB5000010043E8000494F0000FF6D110BD10B5A9
:10DB6000034653E8002F02EB010043E8000494F061
:10DB7000000FF6D110BD10B5034653E8002FA2EBFD
:10DB8000010043E8000494F0000FF6D110BD01211C
:10DB9000FFF7C1BF0021FFF7CABF10B590B1D0E9B0
:10DBA000012301689B1ADBB20A60013BDBB2FF2B49
:10DBB000026802D10020107110BD11684C1C146065
:10DBC0000B70F2E70E20F7E737B5054600240DF19C
:10DBD00007008DF80740FFF777FD2A686B6811682A
:10DBE00099420ED9481E106011F8013CEC68298A50
:10DBF00001FB0344AB6811791B1ADBB2994238BFB1
:10DC000013719DF80700FFF783FD204603B030BD78
:10DC100037B5054600230DF107000C468DF8073097
:10DC2000FFF752FD2A681368591C1160E968641AED
:10DC3000298AB4FBF1F41C709DF80700FFF768FD1A
:10DC400003B030BD826810B504462AB1436901684B
:10DC5000006998470023A36010BD0EB403B5039973
:10DC600021B104AB01AA019300F076F802B05DF88F
:10DC700004EB03B070470A2938B504460D4602D1BB
:10DC80000D21FFF7F8FFA3682268591CA160D55445
:10DC9000D4E901329A4204D32046BDE83840FFF768
:10DCA000D1BF38BD2DE9F84F9846DDE90A43154646
:10DCB00082460F460A464FF00109AA420FD2C145DB
:10DCC00038BFC14613F0010B01D16CB90024012605
:10DCD000B8F1010F1BD908F1FF386E43F8E709F1DD
:10DCE0000109B2FBF5F2E8E79B070ED5B8F1000F8A
:10DCF0000CBF30262026A145E9D2013C31465046D2
:10DD0000FFF7B9FF002CF6D1E0E72026F3E7B7FBD9
:10DD1000F6F39D42E1D9DFF83C80B7FBF6F35046BD
:10DD200018F8031006FB1377FFF7A5FF3346AB4245
:10DD3000B6FBF5F6F1D2BBF1000F02D00CB1A14554
:10DD400001D3BDE8F88F20215046013CFFF793FF37
:10DD5000F4E700BF663102002DE9F74F054617468C
:10DD60008846002900F03E8118F8011B49B92B7B39
:10DD7000002B00F03781284603B0BDE8F04FFFF7D5
:10DD800061BF252940F0B780002698F800302D2B80
:10DD9000424608F1010823D0302B24D02B2B25D06C
:10DDA00000242A2B02F1010123D13B681A1D1B68B4
:10DDB0003A601C440A4613782E2B26D101324FF0CC
:10DDC000000A104610F8011BA1F1300CBCF1090F3C
:10DDD0001DD80A2303FB0A13A3F1300A0246F0E719
:10DDE00046F00106D1E746F00206CEE746F004060B
:10DDF000CBE711F8013CA3F130000928DBD80A2257
:10DE000002FB0434303C0A46CBE74FF0000A12F81C
:10DE1000011B01F0FB0068289046F8D0782909D84A
:10DE20006F290CD8632962D022D8252963D05829BC
:10DE300000F0888098F80030002B95D197E7703972
:10DE40000829F7D801A353F821F000BFBFDF010074
:10DE500035DE010035DE010055DF010035DE010051
:10DE600033DF010035DE010035DE010045DF010052
:10DE7000642901D06929DDD13A68D2F80090111DDA
:10DE800089EAE9723960A2EBE9724FF0010B092AC5
:10DE900035DCD34538BFD3462CB1B9F1000F01DBD7
:10DEA000720700D5013CB30702D5BAF1000F03D0C9
:10DEB000F00701D44CBB0024B9F1000F2DDAC9F1F1
:10DEC00000092D212846FFF7D6FE06F00302022A9C
:10DED00004D1BAF1000F01D11CBB0024CDE90046EA
:10DEE00053460A2249462846FFF7DCFEA2E73B6874
:10DEF0001A1D19783A602846FFF7BDFE9AE70A23F3
:10DF00000BF1010BB2FBF3F2C1E7A345D4D2202100
:10DF10002846013CFFF7AFFECCE77107D5D52B2192
:10DF2000D0E7A345DAD230212846013CFFF7A3FE13
:10DF3000D2E73968CDE900460A1D3A6053460A2205
:10DF40000968D0E739680A1D3A60CDE900465346B2
:10DF50001022F5E73B681A1D3A6016F00106D3F867
:10DF6000009024D1B9F1000F03D0484604F053FCCF
:10DF70000646B4421DD809F1FF3919F8011F0029DE
:10DF80003FF458AF2846FFF776FEF6E728460136FD
:10DF9000FFF771FE19F806100029F7D1A642BFF469
:10DFA00049AF20212846013CFFF765FEF6E7002631
:10DFB000F0E720212846013CFFF75DFED9E73B68EA
:10DFC0001A1D3A60302128461C68FFF754FE78215C
:10DFD0002846FFF750FE00220823CDE900322146F3
:10DFE000102280E703B0BDE8F08F00BF2DE9F84FA5
:10DFF000B0F806A04579D2F800B09DF828900AFB49
:10E0000005F5043D88460BEB0301A94203F1040426
:10E0100088BFA5EB030BB4FBFAF607460AFB1644D0
:10E02000C2F800B04EB9AAEB04055D4528BF5D46B5
:10E03000BBF1000F04D1BDE8F88F3F68013EF1E766
:10E04000043408EB06003C442A46B9F1000F0DD019
:10E050002146ABEB050B04F060FBDA452E443F682C
:10E0600055464FF0000428BF5D46E1E701462046D3
:10E07000EFE7FFF792BDF8B546790146721E0546F7
:10E08000002393422D6803D30024A64202D8F8BD92
:10E090000133F6E70F682846FFF7BAFD0134394629
:10E0A000F3E72DE9F843068ACD1C0746FFF78CFD00
:10E0B000043E35440446B5FBF6F5F0B14FF48073E9
:10E0C000EDB28380C680013D076081464FF00008B5
:10E0D000A84512D23846FFF777FD064648B1637966
:10E0E0000133637108F10108C9F800000760814637
:10E0F000EEE72046FFF7BFFF34462046BDE8F88331
:10E1000001210430FFF72BBD10B501210446043076
:10E11000FFF731FDC0B220B92046BDE81040FFF73F
:10E12000AABF10BD1FB503920022009203AAFFF7F9
:10E130005DFF05B05DF804FB1FB50392012200925C
:10E1400003AAFFF753FF05B05DF804FB41DF7047FA
:10E15000064B10B500241C70054B1C60BFF35F8F8D
:10E160000449054800F03BF8204610BDC82D0020AA
:10E17000CC2D002080310200C02D002007B50023E7
:10E180000DF107008DF80730FFF79EFAF1EE103A17
:10E1900023F09F03E1EE103ABFF35F8F0A4B40225A
:10E1A000C3F884219DF80700FFF7B2FA03F0FAFFE5
:10E1B00020B103B05DF804EBFFF7C8BF20BF40BF3C
:10E1C00020BF03B05DF804FB00E100E0836800229B
:10E1D0005A60C3E904229A60DA601A6070470B68DB
:10E1E0004A684360934208BF0023016008BF436050
:10E1F0007047436843B10268916852680B44934288
:10E20000436004BF00234360704770B5446806460E
:10E210000D46206818B1B3682946984718B9236895
:10E220002B60256070BD2468F3E74368186808B167
:10E2300002681A6070474368186870474368186836
:10E2400000B97047884203D102681A600120704704
:10E2500003460068F4E7000010B50D49A1F594727B
:10E26000914201D800200FE08C1AE30F03EBE40386
:10E270005B1002EBC30452F83330834205D802D25C
:10E2800004F10802ECE7606810BD2146E8E700BF32
:10E290008C36020008B5FFF7DFFF024B002808BFED
:10E2A000184608BD4F35020010B50446C0B2FFF74E
:10E2B000E3F9204610BD4FF08053D3F83001A0F1B0
:10E2C0000D03584258417047024AD2F80034002BDF
:10E2D000FBD0704700E0014010B5FFF7ECFF40B104
:10E2E0004FF080430022C3F80C21C3F81021C3F87B
:10E2F0003825FFF7E0FF002846D04FF08052514B01
:10E30000D2F80414C3F82015D2F80814C3F8241561
:10E31000D2F80C14C3F82815D2F81014C3F82C1531
:10E32000D2F81414C3F83015D2F81814C3F8341501
:10E33000D2F81C14C3F84015D2F82014C3F84415C1
:10E34000D2F82414C3F84815D2F82814C3F84C1591
:10E35000D2F82C14C3F85015D2F83014C3F8541561
:10E36000D2F83414C3F86015D2F83814C3F8641521
:10E37000D2F83C14C3F86815D2F84014C3F86C15F1
:10E38000D2F84424C3F87025FFF795FF48B14FF049
:10E390008043D3F80024D20744BF6FF00102C3F8D2
:10E3A0000024294AD2F8883043F47003C2F8883038
:10E3B000BFF34F8FBFF36F8F4FF08053D3F83021EF
:10E3C0000D2A0ED1D3F83431022B02D81F4AD35C68
:10E3D0003BB14FF01023D3F808224FF08043C3F82D
:10E3E00058254FF01023D3F80022002A03DBD3F87E
:10E3F0000432002B22DA164901234FF01020C1F815
:10E4000004351224FFF760FFC0F80042FFF75CFFFD
:10E41000C0F80442FFF758FF0023C1F80435FFF7A6
:10E4200053FFBFF34F8F08490A4BCA6802F4E062FA
:10E430001343CB60BFF34F8F00BFFDE7064B074A86
:10E440001A6010BD00C0004000ED00E08C360200F4
:10E4500000E001400400FA054C2600200090D003A3
:10E46000074B1B5C1F2B8ABF064A4FF0A04203F0EC
:10E470001F03D2F80405D840C04300F001007047E4
:10E480009336020000030050074B1B5C1F2B86BF16
:10E49000064903F01F034FF0A041012202FA03F3E3
:10E4A000C1F80C35704700BF9336020000030050DE
:10E4B000074B1B5C1F2B86BF064903F01F034FF061
:10E4C000A041012202FA03F3C1F80835704700BFEA
:10E4D000933602000003005008B50020FFF7E8FF64
:10E4E0000120FFF7E5FF0220FFF7E2FFBDE808404B
:10E4F0000320FFF7DDBF08B50020FFF7C5FF0120AF
:10E50000FFF7C2FF0220FFF7BFFFBDE8084003206E
:10E51000FFF7BABF0A4B185C1F288ABF094B4FF0A0
:10E52000A04300F01F00D3F804250121814021EA17
:10E5300002000A40C3F80805C3F80C25704700BF65
:10E540009336020000030050074B1B5C1F2B8ABF51
:10E55000064A4FF0A04203F01F03D2F81005D8403E
:10E56000C04300F0010070478F36020000030050E6
:10E570000B2809D00C2809D0182809D019280CBF5D
:10E5800003204FF0FF307047002070470120704794
:10E5900002207047014B185C704700BF8F360200A5
:10E5A000C20710B504460CD54FF0A0430322C3F8B0
:10E5B0003427C3F83827C3F83C27C3F84027FFF7B0
:10E5C0008BFFA3070AD54FF0A0430C22C3F82C27DA
:10E5D000C3F83027C3F86027C3F8642710BD0000D4
:10E5E00038B5074C051E04F1080318BF1C46236804
:10E5F0002BB11A6822605B6828469847F7E738BD58
:10E60000D82D002020B9054B01225A70FFF7E8BF32
:10E61000012802D1014A9070F8E77047D02D002000
:10E6200020B9034B01225A70FFF7DABF704700BFD1
:10E63000D02D002038B50E4C2378B3B90D48636057
:10E64000A3602361E36000F0E7F8054603F0AAFD4C
:10E6500008B900F0EDF801232370074BD3F800341C
:10E660000BB10123A370284638BD8525F5E700BF0F
:10E67000D02D002005E601000000014037B50D4C0B
:10E6800000230DF107008DF80730FFF71DF8E36850
:10E69000013BE360E36833B9074BD3F8005415B985
:10E6A00000F0D8F8A5709DF80700FFF731F803B027
:10E6B00030BD00BFD02D002000000140012813B55F
:10E6C0000CD0032820D038B9134B0122C3F8802086
:10E6D000BFF34F8FBFF36F8F02B010BD0F4C0023FD
:10E6E0000DF107008DF80730FEF7EEFF23780BB928
:10E6F000FFF7A0FFE3689DF807000133E360012303
:10E70000A370FFF705F8E7E700F092F802B0BDE864
:10E710001040FFF7B3BF00BF00E100E0D02D0020A4
:10E720001FB503788DF800304368019383688DF836
:10E730000830C368054A0393054B684653F82130F7
:10E7400052F82110984705B05DF804FBE42D002035
:10E75000EC2D00201FB503788DF80030436801933D
:10E7600083688DF80830C368054A0393054B6846F3
:10E7700053F8213052F82110984705B05DF804FB9A
:10E78000E42D0020EC2D0020F0B5194B90F800C0CE
:10E79000DFF86CE043F82C20164B16460A6943F864
:10E7A0002C204B7F0EF80C300C4607460FCC89B05E
:10E7B0006D460FC594E80F0085E80F003B78CDF853
:10E7C00010C01EF803304BB1002E0B4A694608BF3B
:10E7D0003246381D00F0FEFD09B0F0BD002E074A9C
:10E7E000694608BF324607F10C0000F0A9FBF3E7C9
:10E7F000EC2D0020E42D002021E7010055E7010069
:10E80000F42D002000F18040002382B003600368F3
:10E810000193019B02B07047044A137923B9012187
:10E82000106011711846704785207047F82D002040
:10E83000074B1A68D20704D4C02283F800230122B0
:10E840001A604FF080430122C3F81825704700BFBB
:10E8500000E100E04FF0804208B50223C2F808331F
:10E860004FF48270FFF7CEFF0123D360D2F8183443
:10E87000DB03FBD408BD00004FF0804210B5D2F896
:10E88000003153B14FF48070FFF7BCFF0123C2F891
:10E8900008330B4B00201B6898474FF08042D2F89A
:10E8A000043163B14FF48270FFF7ACFF0223C2F86A
:10E8B0000833034BBDE810401B680120184710BD0A
:10E8C000F82D002000F1804000F5C040002382B008
:10E8D000036003680193019B02B0704703681F2B1C
:10E8E00083BF03F01F03036001484FF0A04070474F
:10E8F0000003005007B5019001A8FFF7EFFF019B4F
:10E9000000EB8300D0F8003723F44033C0F8003721
:10E91000D0F8003743EA0141C0F8001703B05DF8B2
:10E9200004FB0000054B4FF0FF32072843F820207E
:10E9300084BFC01880F85220704700BF002E00200E
:10E9400038B51E4C94F86430ABBB40F2FF31FF2069
:10E950005A09012A0CBF0A464FF0FF3203F01F0587
:10E96000EA40D20748BFE21803F1010348BF82F82A
:10E9700030002A2BECD10021C8B20131FFF7D2FFC1
:10E980000C29F9D1062200210D4803F0EFFE0D4BB2
:10E99000C02283F8062340221A604FF4BE70FFF7AE
:10E9A00091FF094B4FF00042C3F80423012384F880
:10E9B0006430002038BD0820FCE700BF002E002096
:10E9C0005E2E002000E100E000600040034B93F861
:10E9D0006400003818BF0120704700BF002E0020DF
:10E9E000F7B53D4F3B18044693F93030002B71DAF0
:10E9F0008B78C3F34003002B0BBF082500250C20A8
:10EA00000820854202D1042003B0F0BD57F82560EC
:10EA1000013647D138196EB247F8252080F83060AA
:10EA200013B97B1983F852408B785A071AD4D80748
:10EA30003AD501A80194FFF751FF019B00EB830039
:10EA4000D0F8003723F00203C0F800372348E2086B
:10EA500004F0070C012303FA0CF310F802C043EA98
:10EA60000C03835488780B7810F0020028D0AD0096
:10EA700005F1804505F5C0452402D5F8102522F49E
:10EA80004F3222F44072C5F810251B04D5F810252A
:10EA900004F47C5403F440331C431443C5F810457C
:10EAA0000020B1E70135ACE701A84A780194FFF7EF
:10EAB00015FF019B03F5E073920040F82320C5E7A2
:10EAC000083E47FA86F797F85A4044EA831387F8D6
:10EAD0005A3099E7082097E7002E00205E2E00208C
:10EAE00073B5244D2E18044696F93020072A1DDDF3
:10EAF000083A45FA82F595F85A309B09032B10D154
:10EB0000019001A8FFF7EAFE019BD0F81015D9404B
:10EB100001F001010231204602B0BDE87040FFF76C
:10EB2000E9BE012B0CBF02210321F4E7D3B2072B6E
:10EB30001DD8930003F1804303F5C043D3F81005BB
:10EB400040F00100C3F8100502F1400040B280001F
:10EB500080B2FFF7B7FE51B196F9303055F8233047
:10EB60002BB1012303FA02F2034BC3F8042302B0D2
:10EB700070BD00BF002E00200060004007B501906E
:10EB800001A8FFF7ABFE019BD0F81005D84000F0BC
:10EB9000010003B05DF804FB2DE9FF470024CDE937
:10EBA0000244584D4FF48072012102F1804303F575
:10EBB000C04390B21B68012B06D1D5F804330B4239
:10EBC00002D0FFF77FFE0C430432B2F5907F4FEA8C
:10EBD0004101EAD14B4BD3F87C31012B11D14FF4D9
:10EBE000BE70FFF76FFE4FF0A04344F00044D3F82F
:10EBF00020250292C3F82025D3F820280392C3F8D9
:10EC00002028E3B2D3B1404F00250126344210D072
:10EC1000AB0003F1804303F5C043D3F81005D3F8EC
:10EC2000101557F8253023B1C1F30141C0F3052079
:10EC300098470135082D4FEA4606E7D1002C59DAEE
:10EC4000314D324C324E4FF00008012716F9013B8E
:10EC50005A1C3CD0C3F3C20104A801445FFA83F9F3
:10EC600011F8081C03F03F0203F0070307FA03F34F
:10EC700019422CD001A80192FFF730FE019B03F549
:10EC8000E07350F82330C3F3014ABAF1020F0CBF0E
:10EC9000032102211046FFF72DFE01A80192FFF784
:10ECA0001DFE019B07FA03F3C0F82035AB1893F95A
:10ECB000303055F8233053B14FEA9911032904D06D
:10ECC000BAF1020F19D1012901D11046984708F174
:10ECD0000108B8F1040FB9D14FF0A043D3F82025B3
:10ECE0000292C3F82025D4F820350393C4F82035C8
:10ECF0001343A7D104B0BDE8F087BAF1030FE6D102
:10ED00000229E1E700600040002E002000030050CF
:10ED10005A2E0020014B1B68184700BF682E0020A8
:10ED20000E4B984237B50C4602D0002003B030BDE0
:10ED300000230DF107008DF80730FEF7C5FC084BE6
:10ED40001D7915B901221C601A719DF80700FEF7A4
:10ED5000DFFC002DE9D01120E8E700BF00200040D3
:10ED6000682E00200023435082B043580193019B3A
:10ED700002B070470A4610B54FF48E71FFF7F2FFEC
:10ED8000136A9168C95C136A01331362C0F81C15D9
:10ED900010BD024608B500684FF49271FFF7E2FF1C
:10EDA00010684FF48471FFF7DDFF136801221A60C9
:10EDB00008BD8B690A4610B54FF4847123B9FFF77B
:10EDC000D1FFD0F8183510BDFFF7CCFF536AD168DA
:10EDD000D0F81805C854536A01335362F3E70000B2
:10EDE0001FB501238DF80030044BCDE90110D3E9A4
:10EDF00000126846904705B05DF804FB702E0020B5
:10EE000030B54D4DD5F804339A0585B051D5D5F8B8
:10EE10002431002B4DD04FF492712846FFF7A2FF0A
:10EE20004FF40173C5F80833444B93F829200AB90D
:10EE300001226A60404902228DF80020D1F8802426
:10EE4000C1F8802403929A690292DA680192002242
:10EE5000C3E906226846D3E9001290473648D0F845
:10EE60001C315BB1354A5169136A99424DD992F808
:10EE70002830002B49D11146FFF77CFF2E48D0F8EF
:10EE80004431002B56D04FF4A271FFF76BFF2B4B90
:10EE900093F829200AB1012202609A69002A49D018
:10EEA000586AD96800229A6105B0BDE83040FFF782
:10EEB00097BFD5F804335B07D0D5D5F80831002BC0
:10EEC000CCD01E4C1C482146FFF773FF636AA26931
:10EED0009A42C3D1E369E1684BB1A3612369E3605E
:10EEE0000023606AE3616362FFF77AFFB6E794F894
:10EEF00029300BB901236B600F4B4FF40172C3F83B
:10EF000008230023606AA361EEE70B484FF48E717B
:10EF1000FFF728FF5369002BB0D0516902910023FD
:10EF200091688DF80030019153616846D2E9001371
:10EF30009847A3E705B030BD00200040702E0020A8
:10EF40002DE9F843604D90F804802C2303FB08530F
:10EF5000064693F82A300C469146002B40F0AF80CD
:10EF60005A490068FFF7DCFE0746002840F0A980F8
:10EF70002268531C10D01F2A87BF554902F01F0377
:10EF800013464FF0A0410120984003F5E073C1F80B
:10EF90000805032041F823006168481C0DD01F2993
:10EFA0008BBF01F01F030B4649484FF0A04003F50B
:10EFB000E0734FF0000C40F823C03068A369C0F83C
:10EFC000243594F814C0637DBCF1010F4CEA0303AF
:10EFD000C0F86C35C0F81415C0F80C252BD1A36807
:10EFE000591C0DD01F2B8BBF03F01F021A46384946
:10EFF0004FF0A04102F5E0724FF0000C41F822C042
:10F00000E1684A1C13D01F2987BF314A01F01F0C49
:10F010008C464FF0A0424FF0010E0EFA0CFE0CF59C
:10F02000E07CC2F808E54FF0030E42F82CE0C0F88F
:10F030000815C0F810352C2202FB08F2AB18C3F8F3
:10F0400004902369AB50B9F1000F20D04FF48E71BA
:10F05000247FFFF787FE4FF4A2713068FFF782FE2E
:10F0600032681C4BC2F80433130B42F307326101C0
:10F07000002AC9B21EDB1848841884F80013012145
:10F08000520903F01F0301FA03F340F822303368FA
:10F090000422C3F800252C2303FB08530022C3E9F4
:10F0A000062283F829205A61012283F82A20384653
:10F0B000BDE8F883094A03F00F03D154E7E70827B6
:10F0C000F5E71127F3E700BF702E002001EE0100E5
:10F0D000000300508000020000E100E014ED00E0B9
:10F0E0000279044B2C2101FB02335869003818BF08
:10F0F00001207047702E00202DE9F84F064690F849
:10F10000048089469246FFF7EBFF044600283CD175
:10F11000204F2C2508FB057B4FF48E71CBF814A0F3
:10F12000CBF80890CBF820008BF828003068FFF768
:10F1300019FE3068012383605946FFF71BFEDBF898
:10F1400004305D461BBB3068DBF814402B6A9C42E0
:10F1500011D83368D3F81C21002AFBD00122DA60D1
:10F1600000202C2303FB087700237B61BDE8F88F88
:10F1700095F828303BB9D0F81C31002BF8D059460F
:10F18000FFF7F8FDE2E70F20EBE71120EEE720465E
:10F19000ECE700BF702E00202DE9F0473A4D0779CB
:10F1A0002C2303FB075306465C6824B103684FF425
:10F1B0000170C3F808032C2303FB0753986950B16F
:10F1C000D869002841D024B133684FF40172C3F8E4
:10F1D0000423112436E09A61D9605862D8612C2347
:10F1E00003FB075393F829301BB910B93046FFF7DA
:10F1F000D0FD4FF02C0808FB075A3068DAF80430CD
:10F20000002B37D14FF4A271D046FFF7ABFD306829
:10F21000D0F82491D0F80831D0F84441CBB914B9D2
:10F22000B9F1000FF3D02C2303FB07550023AB618A
:10F23000B9F1000F24D12CBB95F8291033680122B5
:10F24000B1B11A602046BDE8F0871961DA6101208A
:10F25000C5E7B9F1000FE6D1002CE4D14146FFF734
:10F26000A8FDDAF82430DAF818209A42CFD8DAE785
:10F270005A60E7E74FF40173C0F804330024E1E774
:10F280000324DFE70F24DDE7702E00200023435026
:10F2900082B043580193019B02B070471FB5012310
:10F2A0008DF80030044BCDE90110D3E90012684617
:10F2B000904705B05DF804FB9C2E00207FB5434AC3
:10F2C000D2F82461002E60D010464FF49271FFF7FF
:10F2D000DDFF02238DF80030D2F88034C2F880348C
:10F2E0000393D2F83C350293394BDA68019200223D
:10F2F000C3E906226846D3E9001290473348D0F8A4
:10F30000443173B14FF4A271FFF7C0FF304B9A69DB
:10F310003AB10022C3E90622D968D0F83C05FFF7CC
:10F32000BDFF2A48D0F82031ABB14FF49071FFF700
:10F33000ADFF0123C360264B5A6962B1D0F84C156A
:10F340000291002299688DF8002001915A61684667
:10F35000D3E9001290471D48D0F858319BB14FF4C3
:10F36000AC71FFF793FF1A4B5A6962B1D0F84C1594
:10F370000291002299688DF8002001915A61684637
:10F38000D3E90012904704B070BDD2F81031002BC1
:10F39000B4D04FF488711046FFF778FF0C4BD2F8C9
:10F3A0003C0599698842A9D1DC69D96864B1D2F871
:10F3B000005225F02005C2F800521A699C61DA60FB
:10F3C000DE61FFF76BFF99E79C61FAE700200040E0
:10F3D0009C2E00202DE9F843664E90F804802423EB
:10F3E00003FB0863044693F820300D469146002B3A
:10F3F00040F0BC8060490068FFF792FC0746002897
:10F4000040F0B68029684B1C10D01F2987BF5B4A8B
:10F4100001F01F030B464FF0A0420120984003F576
:10F42000E073C2F80805032042F823006A68501C04
:10F430000DD01F2A8BBF02F01F0313464F484FF019
:10F44000A04003F5E0734FF0000C40F823C02068A3
:10F45000AB69C0F8243595F814C06B7DBCF1010F81
:10F460004CEA0303C0F86C35C0F80C15C0F814253D
:10F470002BD1AB68591C0DD01F2B8BBF03F01F0283
:10F480001A463E494FF0A04102F5E0724FF0000CE1
:10F4900041F822C0E9684A1C13D01F2987BF374AA8
:10F4A00001F01F0C8C464FF0A0424FF0010E0EFAF7
:10F4B0000CFE0CF5E07CC2F808E54FF0030E42F8B4
:10F4C0002CE0C0F80815C0F81035242202FB08F221
:10F4D000B318C3F804902B69B350B9F1000F2FD0C3
:10F4E0004FF488712A7FFFF7D1FE20684FF49071A6
:10F4F000FFF7CCFE20684FF49271FFF7C7FE20683B
:10F500004FF4A271FFF7C2FE4FF4AC712068FFF711
:10F51000BDFE23681A49C3F80413190B43F30733DC
:10F520005201002BD2B21CDB1648C51885F8002307
:10F5300001225B0901F01F0102FA01F140F82310DA
:10F5400023680822C3F80025242303FB0866002350
:10F55000C6E906337361012386F820303846BDE8DA
:10F56000F883094B01F00F015A54E9E70827F5E742
:10F570001127F3E79C2E0020BDF20100000300508C
:10F580001003420000E100E014ED00E00279044BBA
:10F59000242101FB02335869003818BF012070474D
:10F5A0009C2E002001F06043B3F1005F2DE9F0478D
:10F5B0000646884692463BD190F80490FFF7E6FF56
:10F5C0000446002836D11D4F3068242505FB0975F7
:10F5D0004FF49071C5F814A0C5F80880FFF756FEE7
:10F5E0004FF4AC713068FFF751FE33686A69A9685F
:10F5F000C3F84415C3F8482501229A606A68DAB94D
:10F60000D3F82021D3F858011AB90028F8D00F20D8
:10F6100007E00028FBD10122DA60D3F85821002A44
:10F62000FBD0242303FB097700237B61BDE8F0872F
:10F630001020FBE71120F9E72046F7E79C2E002079
:10F64000F8B501F06043B3F1005F04460F465ED1A8
:10F650000379304D242101FB0351496821B1006831
:10F660004FF40476C0F80863242000FB03539E691E
:10F6700056B1D869002839D021B123684FF40472FB
:10F68000C3F80423112030E09A61DF60DE61206856
:10F690004FF48871FFF7FAFD20684FF4A271FFF76D
:10F6A000F5FD2368C3F83475C3F8382516BB01226D
:10F6B0001A602479242202FB045252680ABBD3F850
:10F6C0001011D3F84421D3F82401114302D10028AA
:10F6D000F5D00A46242303FB04550023984218BFA3
:10F6E00003209A42AB6118BF0F20F8BD1F61DA6199
:10F6F0000126CCE7D3F8002242F02002C3F8002212
:10F70000D7E74FF40472C3F804230020EDE710207C
:10F71000EBE700BF9C2E00201F288ABF094B4FF04B
:10F72000A04300F01F0003EB8000D0F8003723F463
:10F730004033C0F80037D0F8003743EA0141C0F841
:10F7400000177047000300500220FEF7E3BE0000E0
:10F750002DE9F04780460D46FEF70AFF03280446D0
:10F7600010D8012D10D0022D30D05DB91A48FDF708
:10F77000A9FD1A4B04EB440213449D78184B1B5D02
:10F78000AB4219D0BDE8F087144E00EB4003F218ED
:10F79000F55C5378470053B1DFF84C900E484A4669
:10F7A0004FF48041FDF760FD08B989F800802744D7
:10F7B0003E440B4BB2781A55002DE3D0094B1B6821
:10F7C000002BDFD02846BDE8F047184700EB400487
:10F7D000024804446578EFE770260020C22E00201E
:10F7E000DD2E0020D82E0020C02E0020007802211F
:10F7F000FFF7AEBF08B5094B1B7853B10020FEF7E9
:10F8000057FE0120FEF754FEBDE808400320FEF736
:10F810004FBEBDE80840FEF75FBE00BFC12E00200E
:10F82000F8B57A4C237805461BB100232370FFF707
:10F83000E1FF172D00F28780DFE805F00C17174273
:10F840005364757F878C878C949999999999C3C8CB
:10F85000D0D8E3E3FFF7CEFF6D48FDF733FD6D4BE6
:10F86000002204461A702046F8BD0020FEF7F8FD7D
:10F87000F0B10020FEF71CFE022D0CBF4FF4E16436
:10F880004FF47A64634B1D7000254FF400464FF42B
:10F890007A7029464FF4FA620023E4FB060102F075
:10F8A0000FFE2A460146BDE8F8405948FDF7DCBC8A
:10F8B000FEF7EAFD022D0CBFC8244FF4C874E1E73F
:10F8C0000020FEF7CDFD40B10020FEF7F1FD4FF422
:10F8D0004874504B03221A70D6E7FEF7D5FDC824B2
:10F8E000F7E70020FEF7BCFD38B10020FEF7E0FD91
:10F8F0004FF47A64474B0422EDE7FEF7C5FD4FF461
:10F90000C874F7E70020FEF7ABFD48B10020FEF712
:10F91000CFFD404B05221A7040F6CD410022C2E7D0
:10F92000FEF7B2FDF5E70020FEF7F4FD394B0622A5
:10F930001A70002240F26661B5E70020FEF7A4FDD0
:10F94000344B07221A7000248DE701202070FEF747
:10F95000E1FDEEE701202070FEF7DCFD00224FF410
:10F960000051A0E7FEF7C7FD2A4B0C22EAE72A4820
:10F970002A4EFDF7A7FCD5F1110504461CD0D8B9D5
:10F98000012D13D0C820454321464FF400474FF4C2
:10F990007A704FF4FA620023C5FB070102F090FD74
:10F9A000224601461C48FDF75FFC04460220FEF794
:10F9B0006BFD0123337056E70220FEF779FD00232B
:10F9C000F8E7FFF717FF134B1222BBE7FFF712FF11
:10F9D0000020FEF759FD0F4B1322B3E7FFF70AFF94
:10F9E0000120FEF751FD0B4B1422ABE7FFF702FF9E
:10F9F0000020FEF749FD0120FEF746FD054B1522CC
:10FA0000A0E7FEF778FD034B1D709CE7D42E002085
:10FA100090260020DC2E002050260020C12E002041
:10FA2000044B1B68DB0703D5034B1878FFF7F8BEC0
:10FA3000704700BFD02E0020DC2E0020032801D804
:10FA4000FEF782BD00207047044B1B6813F00103D2
:10FA500001D0FFF7E5BE1846704700BFD02E00204A
:10FA600038B51C4B18601C4B10F002040546196099
:10FA70001AD01A4B1A480E221A700F22DA7010226E
:10FA80009A7111225A72042140F23332FDF728FA9A
:10FA9000044648B9FDF77CFA044628B90146114AE4
:10FAA0001148FDF7CFFB0446EB0711D50120FEF707
:10FAB00077FD6CB921460D4A0D48FDF7C3FB04469E
:10FAC00030B9BDE838400B4A0B480121FDF7BABBFD
:10FAD000204638BDD02E0020D82E0020C22E002077
:10FAE000BC360200EDF70100E036020021FA010009
:10FAF000E436020049F70100DC360200032811D881
:10FB0000012A0AD101290FD100F10E02D2B20D4B08
:10FB100000EB40001A54002070470129F7D0022959
:10FB200004D049B1072070470022F8E7054B00EBED
:10FB3000400018444270EEE7024B00EB40001844CE
:10FB40008270E8E7C22E0020032808B506D8FEF729
:10FB500021FD0321FFF7E0FD002008BD0620FCE7A2
:10FB600008B5012202210020FFF7C8FF08B10728CD
:10FB700010D1072202210120FFF7C0FF08B107289A
:10FB800008D100210A220846FFF7B8FF10B1072864
:10FB900008BF002008BD00000388102B10B502D05C
:10FBA000112B1ED010BD1A4C2168B1B90122084694
:10FBB000FFF7A4FF08B1072824D107220221012062
:10FBC000FFF79CFF08B107281CD104220221002066
:10FBD000FFF794FF08B1072814D12368013323608D
:10FBE000E0E70B4A1368013B1360002BDAD1FFF703
:10FBF000B7FF0028D6D0074B1B68002BD2D0BDE83A
:10FC000010401847034B1B68002BE6D09847E4E7E9
:10FC1000E82E0020E42E002008B50020FFF794FF16
:10FC200008B1062806D10120FFF78EFF10B1062883
:10FC300008BF002008BD00000D4B10B518600C4631
:10FC400029B10120FFF7FAFE40B102232370094BCE
:10FC50001B6853B9BDE81040FFF782BFFFF7EEFE07
:10FC600008B10B23F2E72070F1E7002010BD00BFC0
:10FC7000E42E0020E82E0020704700000448054BC9
:10FC80000549C01AC008000440F00300FCF79CBE00
:10FC9000502F0200282F0200E83602000448054BCE
:10FCA0000549C01AC008000440F00300FCF78CBEF0
:10FCB000502F0200282F0200003702001FB50E4C03
:10FCC00011883023ADF80E300DF10E03009322465B
:10FCD000002301F0FDFE094B0948BDF80E2009493B
:10FCE0000094C01AC0080004002340F00300FCF791
:10FCF00082FE04B010BD00BF0C2F0020282F020090
:10FD0000502F02001B3702002DE9F041974D0FCD17
:10FD1000A6B01BAC0FC495E80300954B954A109311
:10FD20004FF4807384E80300CDE912231193924AC3
:10FD3000072310A91BA8FDF747FC08B1FDF73EF902
:10FD40004FF480410020FCF7A1FC08B1FDF736F923
:10FD5000FCF7DAFBFDF744FA08B1FDF72FF9FEF7DF
:10FD6000F7F908B1FDF72AF900238448ADF8083007
:10FD7000282102F0FDF88148814C02A902F044F9E3
:10FD8000804B8149E41AE408240444F00304BDF8DC
:10FD9000083028222046FCF724FEFCF7C9FC002886
:10FDA000FBD1FCF7C5FC0028FBD1ADF80A004FF6EB
:10FDB000D871724802F0DCF870480DF10A0102F0C7
:10FDC00023F9BDF90A3071496FF027022046FCF78C
:10FDD00008FEFCF7ADFC0028FBD1FCF7A9FC0028CD
:10FDE000FBD103903C21654802F0D9F8634803A990
:10FDF00002F021F9039B66493C222046FCF7F1FD05
:10FE0000FCF796FC0028FBD1FCF792FC0028FBD104
:10FE100000220023CDE9042358485022002302F099
:10FE2000DEF8564804A902F024F9049B59495022EF
:10FE30002046FCF7D6FDFCF77BFC0028FBD1FCF745
:10FE400077FC0028FBD154492046FCF7BDFD534BFD
:10FE500006AA03F11007164618685968154603C527
:10FE60000833BB422A46F7D11868286014220021C3
:10FE70000BA802F07BFC02234949DFF80C81142215
:10FE80002046FCF7AEFD3D480A22314602F075F8E7
:10FE90003A480A220BA902F0BCF80BAD002735F84E
:10FEA000023B36F8022B414620460137FCF799FD0C
:10FEB0000A2FF4D1FCF73CFC0028FBD1FCF738FCFE
:10FEC00007460028FAD1374E33492046FCF77CFD1F
:10FED0000FCE10AD0FC50FCE0FC596E8070085E811
:10FEE000070039462C221BA802F040FC04232E49AF
:10FEF0002C222046FCF775FD20480A2210A902F0AA
:10FF000059F81E480A221BA902F09EF83D46204FD0
:10FF100010AE0DF16C0858F8043B56F8042B394626
:10FF200020460135FCF75DFD0A2DF4D1FCF700FCFD
:10FF30000028FBD1FCF7FCFB0028FBD11B4B1C4A23
:10FF40001C490DF1070001F0D5FD1B4802F0B4FB80
:10FF50001A492046FCF738FD01F0ACFDFCF7E8FB40
:10FF60000028FBD1FEF70AF9F8E700BF603802006D
:10FF70003C2F00203C30002079FC0100EC2E0020BA
:10FF8000502F0200282F020061370200853702003F
:10FF9000B0370200D4370200F83702007838020088
:10FFA000013802008C38020013380200BDFC010049
:10FFB0009DFC01007DFC010025380200373802005D
:10FFC0000369C26893429CBF80681B18013B981A62
:10FFD00070472DE9F843D0E902940546A9EB0408DF
:10FFE0004068904520440F46144404D902F095FB24
:10FFF000EC60BDE8F8834246A4EB090402F08DFBF7
:020000022000DC
:100000006868224607EB0801F0E72DE9F843C56868
:100010000646894617464FF000083469B368706891
:10002000A54228BFE418013C621B5C1BBC4228BFF0
:100030003C46944228BF144649462844224602F0D2
:100040006CFBB3682544AB4208BF00253F1BA044AE
:10005000A144F560E1D14046BDE8F88310B5114CEC
:10006000114AA2610223C4E90433104BE361A26484
:100070004FF400730E4A0F492362E26400231022FA
:10008000E01DA3626362E362A3656365E3652265C5
:1000900002F09FFB0849204602F09BFB2023A3713E
:1000A00010BD00BF3C310020B8380200C431002030
:1000B000B4310020C1380200C538020070B5164BBB
:1000C000182400FB04451D4404FB00331646DC6A7B
:1000D000012C0ED0022C18D0E4B92846FFF770FF8F
:1000E000864204D832462846FFF773FF344620463E
:1000F00070BD2846FFF764FF8642344628BF044699
:1001000022462846FFF765FFF1E72846BDE8704024
:10011000FFF77BBF0024EAE73C310020FFF79EBFDA
:100120006DDF704779DF70477DDF704764DF7047B0
:100130002DE9F04F85B000250E9CBDF83CB0B4F819
:1001400000A00191074690461E46A9463A884A45B6
:100150000DDC45B12388013BA3EB0A039BB2FF2BC7
:100160003AD806F80A30002005B0BDE8F08F7A686A
:1001700052F82900039000220DF10B0103A8FFF7AC
:10018000D5FF0028F0D19DF80B20424521D12288CF
:10019000002D14BF0020022002EB08010144594544
:1001A0001ADC3DB9013292B2019B2280B3542288FD
:1001B0000132228022880DF10B01324403A8FFF79F
:1001C000B5FF0028D0D121889DF80B200A44228059
:1001D000012509F10109B9E70C20C5E72DE9F34133
:1001E000089FBDF824801546CDE900780222044618
:1001F0001E46FFF79DFF50B9334610222946204680
:10020000CDE9087802B0BDE8F041FFF791BF02B038
:10021000BDE8F0812DE9F04F00231788138090F896
:100220002D3085B006460D46144653B3082F01D82D
:100230000C2027E102A8FFF773FF002840F022817D
:1002400023880822EA54238801339BB21B2223808F
:10025000EA542088013080B2208006220DF1090185
:10026000284402F05AFA23889DF8082006339BB2EE
:1002700012F0FE0218BF01222380EA5423880133C2
:100280002380B378FBB123880433BB42D0D802A8C3
:10029000FFF748FF002840F0F58023880322EA5446
:1002A000238801339BB219222380EA542388BDF8A6
:1002B000082001339BB2E9182380EA54120A4A70DD
:1002C000238802332380F2789AB12388D91CB9425B
:1002D000AED80221E954238801339BB20121238047
:1002E000E95423880B449BB22380EA5423880B44AF
:1002F00023807268AAB12388D91CB94298D80221F8
:1003000092F90020E954238801339BB20A2123800B
:10031000E954238801339BB22380EA5423880133B4
:1003200023803389002B40F0A180338A5BB1CDE973
:1003300000472B460722032106F11000FFF74EFF6E
:10034000002840F09F80338B5BB1CDE900472B46FE
:100350001522142106F11800FFF740FF002840F095
:100360009180326A002A40F09080D6F82480B8F15B
:10037000000F30D0B8F804302188981C8A1C024441
:10038000BA423FF655AFFE283FF652AF03336B54E7
:10039000238801339BB2FF222380EA542388013350
:1003A0009BB22380B8F80020EA54E918120A4A7078
:1003B0002088023080B22080B8F804205AB1D8F8E2
:1003C000081000296BD0284402F0A7F92388B8F858
:1003D00004201344238096F82C30002B40F09880A2
:1003E000307800284ED03388012B58D0228802F173
:1003F000020CBC453FF61CAF012805D173780233CF
:1004000013449F42FFF414AF023FBF1ABFB202A9C8
:1004100005EB0C00ADF80870FFF786FE90BB317855
:10042000BDF80830022900F0B98072789A4202D3F0
:100430009F4280F0B180012940F0B280974293B290
:10044000C0F0AE80ADF808300821BDF80830FE2BB2
:100450003FF6EEAE22880133AB542288013292B2CD
:100460002280A9542288134423800BE0CDE9004761
:100470002B460622022106F10800FFF7AFFE0028F6
:100480003FF453AF05B0BDE8F08FB4F800C00CF1F5
:100490000603BB423FF6CCAE1188052901D80720E0
:1004A000F0E76FF4486E01EB0E039BB24FF27D3E16
:1004B0007345F4D95388052BF1D96FF448601818A7
:1004C00080B27045EBD94FF6FF70814201D099425E
:1004D000E5D8052305F80C30238801339BB212219F
:1004E0002380E954238801339BB223801188E95487
:1004F000E818090A4170238802339BB2238052888E
:10050000EA54E918120A4A702388023323802CE740
:10051000B36A002BC3D04FF000084FF00C0A4FF025
:10052000160BB16A5FFA88F20AFB02F201EB0209CC
:10053000B9F80430981CFE283FF67AAE20880333C1
:100540002B54238801339BB2238005F803B0238802
:1005500001339BB223808A5AEA54E918120A4A707E
:100560002088023080B22080B9F804205AB1D9F82E
:100570000810002993D0284402F0CFF82388B9F856
:1005800004201344238096F82C2008F101085FFA18
:1005900088F39A42C5D823E7092156E79F42FBD248
:1005A000ADF8087050E730B5C8B1F2B10024651C51
:1005B0008D4206DA1588A54212D805196D789D423C
:1005C0000ED1A14211D9005D48B1013880B230B1DD
:1005D0000234A3B210FA84F4A14206DB138030BDCA
:1005E000055D01352C44A4B2E1E70020F7E713B51F
:1005F00013460022ADF806200DF106020446FFF76F
:10060000D2FF10B1BDF80630E01802B010BD72DFA5
:10061000704773DF704774DF704738B501220446B6
:100620000D46B0F8D810D0F8D400FFF7E0FF00B1C5
:10063000057004F13C0204F1D40104F15400BDE85A
:100640003840FFF7E4BF80F830107047F8B5044633
:100650000F46002968D0002866D091F87A301BB187
:1006600091F89830002B61D1D7F8A030042B5DD0E1
:10067000D7F89C30042B59D04FF0000C84F802C0FE
:1006800007F178060FCE251D0FC50FCE0FC596E8D2
:10069000070085E8070084F830C0D7F8A43063630A
:1006A000D7F8A830A3634FF6FF7504F1D403C4F85C
:1006B000E430A4F8E8500722614604F1EA0002F0B1
:1006C00055F823780BB984F85450224604F15501AB
:1006D0001F25C4F8D410384622F8D85FFFF79AFDDA
:1006E00008BB224604F19301C4F8DC1007F13C007A
:1006F00022F8E05FFFF78EFDA8B9A369A4F848309F
:100700004FF480730125A4F85030636920640146DA
:1007100084F83C50636404F13C0204F15400FFF798
:1007200076FF00B92570F8BD0E20FCE70720FAE738
:10073000F8B5077804460D46002F00F0F98000F167
:10074000EA06817007220021304602F00FF8E388A4
:1007500013B1A378012B04D0E3794BB1A378022B1A
:1007600006D1636BABB1012284F8F12008209847D1
:1007700004F1EB0304F1F10113F8012B12B99942D2
:10078000FAD117466B1E032B51D8DFE803F0050B97
:100790000F1284F8F130EBE7A3791BB194F8243001
:1007A00003B95FB9E3790BB1002F42D1237A002B53
:1007B00041D1637A002B0CBF00250425636BA57023
:1007C000002B3AD0033D012D37D86279AAB394F8B3
:1007D000F22092BB84F8F420012284F8F320072051
:1007E000984704F13C0518220021284601F0BEFF7D
:1007F000E26A531E0121022B94F8243084F83C1045
:1008000028BF0A4684F8512033B1A36A5A1E022A2F
:1008100028BF0B4684F85230A278002384F8503069
:10082000042A1BD8DFE802F06C0D223252000025AA
:10083000C4E70225C2E70325C0E7002384F8F330AC
:10084000CFE7C4E91063C4F8E4300223012284F83E
:100850003C30802384F83120A4F84830A378002B62
:1008600051D1636B002B5FD100205CE0022384F840
:100870003130032384F83C302369A4F84830002346
:10088000C4F8E430E36826646364E7E7636963649B
:10089000A369A4F848306379B3B194F8F2309BB9F6
:1008A00094F8F43083B1022384F8503004212046B8
:1008B000FFF7B3FE0028D1D1052384F8313004F1CD
:1008C000D403C4F8E430C9E70323F6E7E3696364BB
:1008D000236AA4F84830637983B194F8F2306BB995
:1008E00094F8F43053B1022384F8503004212046A8
:1008F000FFF793FE0028B1D10623DEE70423DCE7EF
:1009000084F83130AAE7D4F8E4102A4604F1540000
:10091000FFF77DFE38B994F8301094F85400FFF7D3
:1009200078FE00289DD0F8BD94F8310098479BE7E9
:100930000820F8E70388112B10B50C460AD0262BA7
:100940001FD0102B05D1C37B012B02D18388A1F8C6
:10095000E83010BD0022838881F8F220B1F8E82049
:100960009A42F6D10B79002BF3D101212046FFF7F3
:10097000DFFE0028EDD0A36B002BEAD0BDE81040CD
:100980001847037A013B012BE3D88978052301310D
:10099000B1FBF3F303EB8303C91AC9B2E6E738B539
:1009A000044690F85400FFF736FE012384F8F23035
:1009B000002384F8F43084F8503006212046FFF7F5
:1009C0002CFE054638B9A1782046FFF7B1FE10B1DC
:1009D000A36B03B19847284638BD75DF704776DFB3
:1009E00070477ADF70477BDF70470000034B1A883F
:1009F00082420CBF18460020704700BFE033002041
:100A0000024B9B6903B11847704700BFC4330020F5
:100A100073B585B22846FFF7E9FF044638B3174E91
:100A2000027A337B9A420CD200F10A012846FFF782
:100A3000D4FFF0B111281AD002B0BDE87040FFF722
:100A4000DFBF00230372337C43B13B212846FFF70D
:100A5000C6FF30F0080301D0FFF7D2FF736933B14E
:100A600000228DF80420ADF8065001A8984702B086
:100A700070BD237A01332372F9E700BFC43300202D
:100A800037B50B46497A0F4A79B9D2E901141D7A74
:100A90000246002D18BF21465868FCF7E5FB78B1E7
:100AA00003B0BDE83040FFF7ABBF002119725369B6
:100AB00033B10122ADF806008DF8042001A8984753
:100AC00003B030BDC43300204B8802889A4212D84C
:100AD00042889A420FD380888B8840F2F311884273
:100AE00094BF021A421A9A4205D80844984234BF69
:100AF0000020012070470020704700000388122B5F
:100B000070B5014659D004D8102B1ED0112B44D0FB
:100B100070BD502BFCD12F4BC288DB899A42F7D194
:100B2000038A022BF4D186883046FFF75FFF054623
:100B30000028EDD001F1120000F037F938BB6868E9
:100B4000FCF7C0FB0028E3D009E0C37B012BDFD119
:100B50004FF6FF70FFF74AFF054620B90420BDE8B5
:100B60007040FFF74DBF1C4A8E8806800023037239
:100B70001368C0F80A305368C0F80E3010310A30DC
:100B8000FFF7A2FF134B6872DB89002BC0D1294607
:100B90003046BDE87040FFF773BF8088FFF726FF3F
:100BA00004460028B4D04068FCF78CFB08B1FFF77E
:100BB00027FF4FF6FF732380AAE786883046FFF7AA
:100BC00015FF05460028A3D008310A30FFF77CFF47
:100BD0006872DCE7C4330020F4330020F8B5064621
:100BE00048B305460FCD154F3C460FC495E80700A6
:100BF00084E807003068124C3C60B0B1FFF7F1FEAA
:100C0000C0B9326813682360536863600D480E4AA8
:100C10004FF6FF7303800D4B40F8043F0021FCF7B3
:100C200011FB002818BF032004E02046FFF7DBFE7D
:100C30000028EBD0F8BD0E20FCE700BFC433002035
:100C4000F4330020E0330020110A020000340020B9
:100C50000AB1FCF739BFFCF740BF73B50191019CA5
:100C600006466CB100252C46294601A8FCF73FFF3B
:100C700018B106EB440301349D800135142DF3D1E6
:100C80003046346002B070BD2DE9F043038884889B
:100C9000103B8DB00A2B1ED8DFE803F006361D1D71
:100CA0001D1D1D1D1D5B3D002E4FBB68DB430093CA
:100CB00079686846FCF747FF009901A8FFF7CDFF68
:100CC0000DF108080026019B9E4207D3132C12D970
:100CD0000420FCF773F90DB0BDE8F08338F8029BEF
:100CE00000250135494607EB8500FCF7F6FE1E2D71
:100CF000F7D10136E7E721461B48FCF7E5FE1B4824
:100D00002146FCF7E1FEE6E7174821460DB0BDE8B5
:100D1000F043FCF7E2BE027A15483F2A4FEA12156B
:100D2000214694BF00220122FFF792FF022D94BFBB
:100D3000002201220F482146FFF78AFF012D0E48AD
:100D400094BF0022012221460DB0BDE8F043FFF719
:100D50007FBF037A002BBED1427A0548C2F3C0029E
:100D60002146F1E7203400202834002024340020DC
:100D7000383400203434002030340020AADF70479B
:100D8000002301380B70042806D8DFE800F00306C2
:100D9000080A0C0011230B7070472123FBE7312355
:100DA000F9E71223F7E72223F5E7008800F00100B6
:100DB000704738B5044608460D4601F02CFD6560C5
:100DC000208038BDF0B58B7891B0012B0C4638BF30
:100DD00001238DF80E3005460B88ADF80C3000214C
:100DE00016466846032201F0C1FC607C6946FFF7A5
:100DF000C7FFA07C0DF10101FFF7C2FFE27B237B5F
:100E0000217D43EAC203227C43EA02139DF80220BB
:100E1000002922F0190203F0190314BF0221012155
:100E2000134361F342031C22002109A88DF802300C
:100E300001F09CFC637B13F0300F15D002AF03224E
:100E40000021384601F092FCE07C0DF10901FFF72A
:100E500097FF11238DF808309DF80A300E97012274
:100E600062F342038DF80A30637B8DF8243014223C
:100E7000A37B8DF82530002104A801F077FC03AB9B
:100E80000493A388ADF81C30A368CDF814D01BB12F
:100E9000E288ADF818200893A369002B31D001AF88
:100EA00003220021384601F061FCA3691A88ADF8DD
:100EB0002C205A88ADF82E205A680D97187B0A927C
:100EC0003946FFF75DFFA3690DF10501587BFFF778
:100ED00057FFA3699A7A197A41EAC201DA7A9B7BB1
:100EE00041EA02119DF80620002B01F0190122F0C1
:100EF000190214BF02230123114363F342018DF849
:100F00000610E36903B10C93334604AA09A92846E5
:100F1000FFF734FF11B0F0BD90DF7047A5DF7047D9
:100F2000B5DF70477FB50023ADF80810ADF80A10A3
:100F30006A4602A90646ADF80C30ADF80E300093B3
:100F4000ADF80430FFF7E8FF054600B3114B124C33
:100F5000E41AE408FDF79EF9240444F00104034672
:100F60000E4932462046FBF73CFDBDF80020BDF897
:100F7000023052EA030103D009492046FBF731FD54
:100F8000BDF804201AB107492046FBF721FD284689
:100F900004B070BD282F0200702F0200CC38020070
:100FA000163902005539020080B14FF07C130360FE
:100FB000802303717C23C380172303814FF4DC5209
:100FC0000023016143818281184670470E207047DB
:100FD00030B1A1F11703652B04D8018000207047C0
:100FE0000E2070470720704713B5034680880C46D3
:100FF000B8B91A88242A00F0978014D8112A6FD023
:10100000232A00F0A280102A3ED0A37A4BB1E188B7
:101010000020FFF783FF002840F09D804FF480738D
:10102000638102B010BD3A2A63D0552AEDD1DB8826
:10103000C988A072172B38BF17238B4228BF0B46D5
:101040002381FFF76DFF60B1FDF724F94B4B4C494D
:1010500002464C481B1ADB081B0443F00100FBF757
:10106000B7FCE27A002AD0D12369002BCDD040F61C
:101070007721ADF802202289ADF80010ADF80420E8
:10108000694620469847C0E7DB7B0A790A73012B43
:1010900004BF0B88CB80C98823898B4205D20020EE
:1010A000FFF73CFF48B90123E372217B637B8B424E
:1010B000ABD20020FFF736FFA7E7112802D10123AA
:1010C000A372F2E7FDF7E6F82C4B2F4902462D48B4
:1010D0001B1ADB081B0443F00100FBF779FCE4E773
:1010E0007C23CB8017230B814FF4DC5348818B8109
:1010F0008BE75B89CA88934228BF1346172B0A697E
:1011000038BF17230B8162B1C97A51B140F67721FC
:10111000ADF80010ADF80200ADF804306946204685
:1011200090470023638170E71A7A0B694A73002B9A
:101130003FF46BAF4DF67A218DF80500ADF8001045
:10114000ADF802008DF804209AE7197A237B9942C2
:1011500028BF1946AEE711283FF463AFFDF79AF8B0
:10116000064B0949024607481B1ADB081B0443F0DB
:10117000010002B0BDE81040FBF72ABC702F02004E
:10118000DC390200282F0200AB390200B0DF7047C3
:1011900066DF704710B5002104464088FFF7F8FF6E
:1011A000034608B9237210BD112801D10123F9E7C4
:1011B0006368BDE81040184760B159B10378DE2B71
:1011C0000AD00B684360DE2303704FF6FF73438041
:1011D000002070470E2070470820704728B1037820
:1011E000DE2B04D14180002070470E20704708207C
:1011F0007047F0B5054685B00C46002942D000285E
:1012000040D00B78DE2B3DD182884B889A4204D1A6
:101210000B7A13B10846FFF7BDFF2B88112B33D093
:10122000512B0FD0012B2DD12B7A012B2AD1A9883C
:101230006288914226D12046237205B0BDE8F04075
:10124000FFF7A8BFAE886388B3421BD1AF79022FE6
:1012500018D1AD7B2B1F022B14D800211022684619
:1012600001F084FA052D18BF4FF4C073694630466B
:1012700018BFADF804308DF80070FFF787FF08B194
:101280006368984705B0F0BD6388AA889A4204BF96
:101290004FF6FF736380F5E776DF704778DF7047BE
:1012A0007ADF70477CDF70477FDF70478FDF7047E2
:1012B000A8DF7047ADDF7047AEDF7047B1DF704722
:1012C00062DF704733DF7047FBF778BE30B5254CDF
:1012D00087B02C232288ADF806304FF6FF739A4270
:1012E0003DD0214A002315464FF481710133162B5E
:1012F00022F8021BFAD11D4A137801331370002122
:10130000102202A801F032FA01238DF80A30184B9E
:1013100020885B89ADF8083002A90DF10603059518
:101320000493FFF7C9FF30F0080207D0132805D057
:1013300043F20142904201D0FBF740FE0D4B0E48B4
:101340000E49C01AC0080004BDF806302C2240F037
:101350000300FBF746FBFBF7EBF90028FBD107B0D6
:1013600030BD00BFB82600209C340020C8340020C7
:10137000C4350020282F0200502F0200183A020026
:1013800008B50020FEF760FB08B1FBF717FEFEF77B
:1013900043FC08B1FBF712FEFFF794FF18B1BDE85C
:1013A0000840FBF70BBE08BD0388212B37B5054667
:1013B00071D007D8112B4BD0132B7AD0102B0DD016
:1013C00003B030BD522B00F08380562B01D03B2B55
:1013D000F6D1A8881321FFF75FFF71E0404B414C25
:1013E0004149E41AE408240444F003042046FBF7CE
:1013F000EBFA0720FEF728FB08B1FBF7DFFDA98811
:101400003A4D3B482980FFF7E9FE08B1FBF7D6FDCE
:10141000384B1B6813B1288800219847364A374853
:101420000121FBF70FFF08B1FBF7C8FD344800228C
:101430004FF48041FBF718FF08B1FBF7BFFD3149BE
:101440002046FBF7C1FAFBF773F90028FBD1B7E799
:10145000234B244C2C49E41AE408240444F00304EC
:101460002046FBF7B1FA214B4FF6FF701880274B4F
:101470001B680BB1002198472148FBF723FF08B1F7
:10148000FBF79CFD22492046FBF79EFAFBF750F93B
:101490000028FBD194E7002380888DF8043001A94F
:1014A0008DF80530FFF702FF002889D0FBF786FD95
:1014B00086E70E48002300881A468521FFF7F4FED0
:1014C00000283FF47DAF03B0BDE83040FBF776BDA8
:1014D000064800231A4619460088FFF7EFFEEFE79B
:1014E000282F0200502F02002E3A0200B8260020BA
:1014F0002036002014360020CD120200C83B020026
:10150000C0260020383A02004A3A0200183600206D
:10151000573A020008B503784BB9054B3B211888B0
:10152000FFF7BAFE18B1BDE80840FBF747BD08BD9C
:10153000B8260020072808B513D00A280DD00428A3
:1015400019D10D4B13211888FFF7A6FE30F00803C0
:1015500011D0BDE80840FBF731BDBDE80840FFF7FA
:101560000FBF054B1A884FF6FF739A4203D1034809
:10157000FFF715FAEAE708BDB8260020CC340020B2
:1015800008B548B103280BD10220FEF75DFA38B147
:10159000BDE80840FBF712BDBDE80840FFF7F0BE0C
:1015A00008BD00000388502B2DE9F341044640F0AC
:1015B000E080714B714D724EC288ED1AF388ED08D0
:1015C0002D049A4200F1060745F0030519D1028A5D
:1015D0006C492846FBF7FCF9FBF7AAF80028FBD179
:1015E00004F11200FFF7E1FB674BD3F80080B8F17C
:1015F000000F06D0009065486549008801233A46EF
:10160000C047E288F3899A4210D104F11200FFF733
:10161000CCFB5D4BD3F80080B8F1000F06D00090F2
:101620005A485C49008801233A46C047E288738AD9
:101630009A4210D158492846FBF7C6F9524BD3F8C5
:101640000080B8F1000F06D05048544900230093A1
:1016500000883A46C047E288738B9A4210D15049BD
:101660002846FBF7B1F9484BD3F80080B8F1000FDA
:1016700006D046484B490023009300883A46C047AD
:10168000E288F38B9A4210D104F11200FFF78DFB30
:101690003D4BD3F80080B8F1000F06D000903B48D6
:1016A0004049008801233A46C047E288738C9A4239
:1016B00010D13D492846FBF787F9334BD3F800801A
:1016C000B8F1000F06D03148384900230093008854
:1016D0003A46C047E288F38C9A4210D104F11200D6
:1016E000FFF763FB284BD3F80080B8F1000F06D05A
:1016F000009026482D49008801233A46C047E288D9
:10170000F38D9A4210D104F11200FFF74EFB1E4BED
:10171000D3F80080B8F1000F06D000901B48244990
:10172000008801233A46C047E288738E9A4216D158
:1017300004F112030093228AE3891E492846FBF72D
:101740005AF9FAF7F5FF0028FBD10F4B1E6836B1A6
:10175000009003460D48184900883A46B047A27CDD
:10176000E3880192228A009214491A462846FBF720
:101770004EF902B0BDE8F081282F0200502F020080
:10178000C4350020693A02001C360020B82600202B
:10179000C6350020CE3500208B3A0200D635002019
:1017A000AC3A0200DE350020CF3A0200E6350020D8
:1017B000EE3500201B370200F6350020F53A020016
:1017C0000B4B4A881B889A4210D10A8840F677232F
:1017D0009A420BD1074A08488B880849801AC008EA
:1017E00000041A4640F00300FBF7FBB8704700BF47
:1017F000B8260020282F0200502F0200323B0200A2
:10180000FBF7DCBB08B508490848FFF7CDFB08B17A
:10181000FBF7D4FB05487C21FFF7DAFB18B1BDE8E4
:101820000840FBF7CBBB08BDC11702000036002003
:10183000F0B59E4B91B004AA054603F11007164679
:1018400018685968144603C40833BB422246F7D1CE
:1018500005F13A013046FFF733FD0446002840F019
:10186000218195F83A308DF806302A464BF248230C
:1018700001A90120ADF80430FFF71AFD0446002845
:1018800040F01081202201460DEB020000F06EFFB7
:101890004BF24923ADF8203095F83A308DF82230DC
:1018A0009DF82D302A4623F0120343F0120301263F
:1018B00032F8020B8DF82D304FF0011708A9099767
:1018C0008DF831608DF83360FFF77CFA044600280C
:1018D00040F0E880202201460DEB020000F046FFB8
:1018E0004BF24A23ADF8203095F83A308DF822308B
:1018F0004FF02C1309939DF82D308DF831602A4656
:1019000023F0120343F0120332F80A0B8DF82D3046
:1019100008A98DF83360FFF755FA0446002840F017
:10192000C180202201460DEB020000F01FFF4BF2A8
:101930004B23ADF8203095F83A308DF822309DF8E1
:101940002D3009972A4623F0120343F0120332F890
:10195000120B8DF82D3008A98DF831608DF83360A9
:10196000FFF730FA0446002840F09C802022014610
:101970000DEB020000F0FAFE4BF24C23ADF82030E4
:1019800095F83A308DF822309DF82D3009972A4687
:1019900023F0120343F0120332F81A0B8DF82D30A6
:1019A00008A98DF831608DF83360FFF70BFA044613
:1019B000002877D1202201460DEB020000F0D6FE70
:1019C0004BF24D23ADF8203095F83A308DF82230A7
:1019D0009DF82D3009972A4623F0120343F0120395
:1019E00032F8220B8DF82D3008A98DF831608DF872
:1019F0003360FFF7E7F90446002853D1202201465F
:101A00000DEB020000F0B2FE4BF24E23ADF8203099
:101A100095F83A308DF822309DF82D3009972A46F6
:101A200023F00A0343F00A0332F82A0B8DF82D3015
:101A300008A98DF831608DF83260FFF7C3F90446CC
:101A400080BB1B4902A8FFF7B4F9202221460DEB09
:101A5000020000F08BFE4BF24F23ADF8203095F8DA
:101A60003A308DF82230BDF80830ADF8263010231A
:101A7000ADF82430039B0A93BDF82C308DF831600B
:101A800023F42F632A4623F00F0343F420633343E8
:101A900032F8320BADF82C3008A98DF83260FFF720
:101AA00091F90446204611B0F0BD00BFB63B0200DC
:101AB0004E3B020008B505480321FEF739FE18B178
:101AC000BDE80840FBF77ABA08BD00BFCC3400205F
